:020000040002F8
:10300000E87B00204D3302005533020057330200A5
:10301000593302005B3302005D3302000000000000
:103020000000000000000000000000005F3302000C
:1030300061330200000000006333020065330200C8
:103040000537020067330200313B0200E13702001E
:1030500067330200673302002D3502006733020038
:1030600067330200673302006733020067330200F0
:1030700067330200673302006733020067330200E0
:10308000673302005D3702006733020067330200D6
:103090002D38020067330200313802006733020026
:1030A00067330200673302006733020067330200B0
:1030B00067330200673302000000000000000000D8
:1030C0006733020067330200673302006733020090
:1030D000673302006733020067330200000000001C
:1030E00000000000000000000000000000000000E0
:1030F00000000000000000000000000000000000D0
:1031000000000000000000000000000000000000BF
:1031100000000000000000000000000000000000AF
:10312000000000000000000000000000000000009F
:10313000000000000000000000000000000000008F
:10314000000000000000000000000000000000007F
:10315000000000000000000000000000000000006F
:10316000000000000000000000000000000000005F
:10317000000000000000000000000000000000004F
:10318000000000000000000000000000000000003F
:10319000000000000000000000000000000000002F
:1031A000000000000000000000000000000000001F
:1031B000000000000000000000000000000000000F
:1031C00000000000000000000000000000000000FF
:1031D00000000000000000000000000000000000EF
:1031E00000000000000000000000000000000000DF
:1031F00000000000000000000000000000000000CF
:10320000DFF80CD000F054F90048004725680200B0
:10321000E87B002030B4044654E8000F0D4644E833
:103220000053002BF8D1156030BC704730B4044611
:1032300054E8000F40EA010544E80053002BF7D1A1
:10324000156030BC704730B4044654E8000F00EA03
:10325000010544E80053002BF7D1156030BC7047DE
:1032600030B4044654E8000F80EA010544E80053F6
:10327000002BF7D1156030BC704730B4044654E8D9
:10328000000F00EB010544E80053002BF7D1156057
:1032900030BC704730B4044654E8000FA0EB010581
:1032A00044E80053002BF7D1156030BC7047000094
:1032B00030B4044654E8000F0D4644E80053002B98
:1032C000F8D1156030BC704730B4044654E8000FA4
:1032D00040EA010544E80053002BF7D1156030BCEB
:1032E000704730B4044654E8000F00EA010544E892
:1032F0000053002BF7D1156030BC704730B4044642
:1033000054E8000F80EA010544E80053002BF7D190
:10331000156030BC704730B4044654E8000F00EB31
:10332000010544E80053002BF7D1156030BC70470D
:1033300030B4044654E8000FA0EB010544E8005304
:10334000002BF7D1156030BC70470000064880475D
:1033500006480047FEE7FEE7FEE7FEE7FEE7FEE77A
:10336000FEE7FEE7FEE7FEE7353802000132020025
:103370002DE9F05F0546002092469B4688460646AA
:10338000814640241BE0284641464746224600F03D
:103390007EF853465A46C01A914110D3114618463A
:1033A000224600F065F82D1A67EB01084F462246C9
:1033B0000120002100F05CF817EB00094E41201EAF
:1033C000A4F10104DFDC484631462A464346BDE805
:1033D000F09F000000487047BCA4020040EA0103CF
:1033E0009B0703D009E008C9121F08C0042AFAD2BB
:1033F00003E011F8013B00F8013B521EF9D270477F
:10340000D2B201E000F8012B491EFBD27047002226
:10341000F6E710B513460A4604461946FFF7F0FFD3
:10342000204610BD421C10F8011B0029FBD1801A58
:103430007047034611F8012B00F8012B002AF9D13F
:103440001846704730B50B46014600202022012463
:1034500009E021FA02F59D4205D303FA02F5491B62
:1034600004FA02F52844151EA2F10102F1DC30BD78
:10347000202A04DB203A00FA02F100207047914034
:10348000C2F1200320FA03F3194390407047202A29
:1034900004DB203A21FA02F00021704721FA02F3FE
:1034A000D040C2F120029140084319467047000005
:1034B000064C074D06E0E06840F0010394E8070081
:1034C00098471034AC42F6D3FFF79EFE90AB020053
:1034D000B0AB020070B58C1810F8015B15F0070353
:1034E00001D110F8013B2A1106D110F8012B03E09D
:1034F00010F8016B01F8016B5B1EF9D12B0705D4A5
:103500000023521E0DD401F8013BFAE710F8013BED
:10351000CB1A921C03E013F8015B01F8015B521E09
:10352000F9D5A142D8D3002070BD00002DE9F047A5
:1035300000268CB0DFF86091B0464FF4807501240E
:1035400037460696284604F051FC38B1D9F80403F2
:10355000204203D0284604F03FFC26432D1D640082
:103560007F1CADB2082FEDD34FF4BE74204604F09B
:103570003DFC48B1204604F02FFC46F0004606AA68
:103580000121002004F014FC444D16F0FF0F15D06B
:103590000127002437420DD009EB8401D1F8100532
:1035A000D1F81015C0F3042055F82420C1F30141CF
:1035B00002B190477F00641C082CEBD3002E67DA21
:1035C0004FF0FF30CDE9088000263446281910F866
:1035D000507F90F9000027F0C008401C44D009A992
:1035E000404603F02AFC58B34FEA9719404602F0D0
:1035F00053FA55F820701FB1B9F1030F03D00FE053
:10360000B9F1030F30D108A84FEAD80208F0070338
:10361000815C4FF0010C0CFA03FC41EA0C0181546F
:103620004FF0A04101EB8800D0F8000706A9C0F3D5
:10363000014A404603F001FC18B1BAF1020F03D071
:1036400012E0BAF1030F0FD1B9F1030F08D1BAF1AB
:10365000020F1BD00221404604F086FB761CF6B216
:1036600017B149464046B847641C042CAED3002E1F
:103670000ED06A460121002004F09AFB06990098BA
:10368000884205D00690089809909DE70321E2E75B
:103690000CB0BDE8F087000000600040D43100208D
:1036A00000F01F02012191404009800000F1E0205C
:1036B000C0F88012704700F01F02012191404009BC
:1036C000800000F1E020C0F80011704700F01F02F8
:1036D000012191404009800000F1E020C0F8001273
:1036E00070474907090E002806DA00F00F0000F1C4
:1036F000E02080F8141D704700F1E02080F80014ED
:10370000704700002DE9F0414FF48077384603F010
:103710005DFC0124104EA50748B1384603F05DFC5E
:103720000120C5F808037470002002F02BFA4FF452
:103730008277384603F04AFC00280BD0384603F065
:103740004CFC0220C5F80803B470BDE8F04101202C
:1037500002F018BABDE8F081C0310020074800210E
:10376000C0F84011C0F84411C0F84811C0F84C111D
:10377000C0F80011C0F8041106F0A2B90010014011
:1037800000F0E4B970B50E46144900EB400001EBBF
:10379000C0051446E86A183520B101280FD0022868
:1037A00005D113E0284600F005FAA04201D200241A
:1037B00011E022463146284600F034FA0BE0284654
:1037C00000F0F8F9A042F4D20446F2E73146284668
:1037D00000F0FBF90446204670BD0000603900206F
:1037E000F8B511480F4D04464FF48C7105F049F8B7
:1037F000002815D00026C4F81861D4F818010090EC
:10380000A87F2C46FF2801D004F0BFFA6677267205
:10381000D4E9002101B004F10800BDE8F0401047F0
:10382000F8BD00004C3200200030004006F096B891
:1038300004F0BCBFF0B5AE480023021D017801259D
:10384000101D4FF0805406290BD11678360708D189
:103850000678C6F30316032E06D0042E04D0052ED8
:1038600002D0062907D00EE0B4F82463A14FC6F3B6
:1038700004263E6002E01678360704D10678C6F3C7
:103880000316032E02D0062904D00FE09B4F9A4E58
:103890007E670EE01678360708D10678C6F3031661
:1038A000032E06D0042E04D0052E02D0062907D000
:1038B0000EE0D4F84462924FC6F342363E6002E016
:1038C0001678360704D10678C6F30316032E02D005
:1038D000062906D011E08B4E376827F080773760D5
:1038E0000EE01678360708D10678C6F30316032EC5
:1038F00006D0042E04D0052E02D006290AD011E0ED
:103900004FF08046C6F80C31C6F810317C4E361F99
:10391000336002E01678360704D10678C6F3031642
:10392000032E02D0062905D00CE0754F032664371C
:103930003E600AE01678360704D10678C6F303160F
:10394000032E02D006290DD014E06F4F05263E60ED
:103950006D4E783635606C4E083633603F263F1D1D
:103960003E6002E01678360704D10678C6F30316E7
:10397000052E02D0062957D062E0644E3668644FA7
:103980003E60624E361D36683F1D3E605F4E083613
:1039900036683F1D3E605D4E0C3636683F1D3E600A
:1039A0005A4E103636683F1D3E60584E1436366803
:1039B0003F1D3E60554E18363668554F20373E60E5
:1039C000524E1C3636683F1D3E60504E20363668DB
:1039D0003F1D3E604D4E243636683F1D3E604B4EC7
:1039E000283636683F1D3E60484E2C3636683F1DEF
:1039F0003E60464E30363668454F40373E60434E57
:103A0000343636683F1D3E60404E383636683F1DBE
:103A10003E603E4E3C3636683F1D3E603B4E403673
:103A200036683F1D3E6002E01678360708D10678FA
:103A3000C6F30316032E06D0042E04D0052E02D0A2
:103A4000062907D019E0D4F85812324A01F04F0184
:103A5000116002E0117809070FD10078C0F303105C
:103A6000032803D0042801D0052806D12A4801687C
:103A7000C90702D06FF00101016022487438016863
:103A800041F470010160BFF34F8FBFF36F8F4FF0B0
:103A90001021D1F80002002803DBD1F8040200282D
:103AA00022DA1E4A15601E480468002CFCD015243A
:103AB000C1F800420568002DFCD0C1F8044201683D
:103AC0000029FCD0136001680029FCD0BFF34F8FA0
:103AD0000C48F0380168134A01F4E06111430160B9
:103AE000BFF34F8F00BFFDE710490F480860F0BDDE
:103AF000E00F00F0403501400DF0ADBA00C00740C6
:103B00003C050040FCED00E01056004004040010AD
:103B100020C50040E40E00400004004004E50140E0
:103B200000E401400400FA050090D003342B00208B
:103B30000448017F04480029024901D006F09BB9DE
:103B400006F00AB92C3200200020004010B5124CBB
:103B500002202061606111A0A06104F17800E061A1
:103B60004FF4007020620020A06260620BA1A1648B
:103B7000E06204F51E71E1641021A065C4E914102F
:103B8000E06509A1E01DFFF754FC08A12046FFF7FE
:103B900050FC2020A07110BD603900205465726D6A
:103BA000696E616C00000000525454005345474751
:103BB000455200000269C1688A4203D88068401AF1
:103BC000104400E0501A401E70472DE9F047C468C9
:103BD0001746894606464FF000083069A04201D9D1
:103BE000051B02E0B168201A0D1AB0686D1E001B9B
:103BF000A84200D80546BD4200D33D4670682A461B
:103C000020444946FFF7EAFBB0687F1B2C44A844D8
:103C1000A944A04200D10024F460002FDDD1404629
:103C2000BDE8F0872DE9F04104468846D4E9020753
:103C3000C51BE168606816460844B54206D941468E
:103C4000FFF7CCFBB819E060BDE8F0812A46414699
:103C5000FFF7C4FB761B08EB050132466068FFF7EF
:103C6000BDFBE660F0E700000FB4054B10B503A9FB
:103C7000044A029800F03EF810BC5DF814FB000006
:103C800007630200D82A00200FB4084B10B504A91E
:103C900002AA039800F02EF8044602A9002000F0C2
:103CA000D3F8204610BC5DF814FB0000493E02002A
:103CB00002E008C8121F08C1002AFAD170477047F5
:103CC000002001E001C1121F002AFBD17047000053
:103CD0000121202803DA81400548014003E0402803
:103CE00002DA2038814009B1012070470020704776
:103CF000FC06FFBD2DE9FF4F89B09B460446002519
:103D000006E025280BD05A460B999047641C6D1C81
:103D100020780028F5D10DB02846BDE8F08F0027A7
:103D2000B8460122474900E0074314F8013F203B11
:103D300002FA03F00842F7D120782E2819D114F89E
:103D4000010F47F004072A280ED06FF02F022078C9
:103D5000A0F1300109290CD808EB880102EB4101E0
:103D600000EB0108641CF2E70A98641C50F8048B0D
:103D70000A9020780028CED0642808D0692806D080
:103D800075281ED05A460B9990476D1C58E00A9929
:103D90004FF00A0901C90A91002802DA40422D2198
:103DA00002E0390504D52B218DF82010012103E014
:103DB000F90704D02021F7E78A4608AE0DE000217C
:103DC000FAE70A994FF00A0901C90A91F7E749464B
:103DD000FFF738FB303106F8011D0028F7D1ADEBB5
:103DE000060000F12009780701D44FF00108C8450A
:103DF00002DDA8EB090000E000208046002706E075
:103E000008A85A46C05D0B9990476D1C7F1C57450A
:103E1000F6DB04E030205A460B9990476D1CB8F150
:103E20000001A8F10108F5DC05E016F8010B5A467F
:103E30000B9990476D1CB9F10001A9F10109F4DC5F
:103E4000641C65E7092801000A68531C0B601070A8
:103E5000704710B501220221002001F045FC08B195
:103E6000072810D107220221012001F03DFC08B1F2
:103E7000072808D100210A22084601F035FC08B1C4
:103E8000072800D1002010BD022001F025BB000052
:103E900070B50024064D06E06868012110F8340072
:103EA00003F08EF9641C28788442F5D3002070BD9D
:103EB000982A0020F8B515460C460646052A01D278
:103EC0000720F8BD03F062FA18B903F031FA0028B0
:103ED000F7D1104900204E600C70C1E902500E4D20
:103EE00008610DE006EBC4006968009181788DF8E7
:103EF00001100078094A694603F0B4F90028E0D1BE
:103F0000641EE4B2EED2BDE8F840054A0021024842
:103F100000F078B8982A002030A20200E96302007D
:103F20007D610200134C0121208801EB004012A1A9
:103F300004F00AF904F0CAF904F030F80028FBD1C3
:103F40000F480068C00700D000BE2088032101EBA5
:103F500000400CA104F0F8F8BFF34F8F0848E43894
:103F600001680D4A01F4E06111430160BFF34F8F16
:103F700000BFFDE7942B0020466174616C000000D7
:103F8000F0ED00E0486974207765616B2068616E30
:103F9000646C6572000000000400FA050EB5002193
:103FA0000091CDE901106A4644F20100FFF7BAFF23
:103FB0000EBD10B58268C368934203D002F090F939
:103FC000002010BD052010BD29B112B1531E1342AF
:103FD00003D0092070470E207047016083800021C4
:103FE0008160C1600846704710B58268C3689A1A3C
:103FF00083889A4203D802F07DF9002010BD042086
:1040000010BD0000074B9B7823B12AB120B1006896
:10401000037C1BB108207047072070474174426140
:10402000002070479032002070B504F045FE104823
:1040300000240B21047044700E4D817014206C60BC
:104040002C706C70FFF72CFB07211420FFF749FB45
:104050001420FFF730FB0848046007211120FFF708
:1040600040FB0548001F0068A860002070BD0000EC
:1040700090320020AC2A0020081501402DE9FC47B1
:10408000DFF8789099F8023073B368B3052902D24B
:104090000720BDE8FC87436933B3437C012B25D05F
:1040A000002704460025884616468DF800506846CD
:1040B00000F0CAF801A805F0E9FFC8B101210170BC
:1040C0000F4944600968C0E90218C0E904769DF808
:1040D000040089F801009DF8000000F0D9F81420D0
:1040E000FFF7F4FA2846D4E70820D2E70F46D8E7CE
:1040F00004259DF8000000F0CBF8F3E79032002093
:10410000041501400649897839B130B1416921B1BE
:1041100000210174022105F0AFBC082070470000A7
:104120009032002070B50A4E01460A48B578FFF774
:1041300040FF04464DB10020B070711C0122C81D23
:1041400003F044FA08B1FFF729FF204670BD0000D4
:10415000C02A00209C330020F0B5284E89B01F46AD
:104160000D00044672603BD0A888296882B22448BA
:10417000FFF72AFF002834D1A889A96882B2204815
:104180001030FFF721FF00282BD120221D4968465F
:10419000FFF724F960690690207C00B101208DF8BA
:1041A00014008DF81C70607C00B10E208DF8150095
:1041B000E0680290A0680390206801906068009019
:1041C0000E48114A6946083003F0CCF9002808D19E
:1041D000B0702068401C04D09DF81D0018B106E0A6
:1041E000072009B0F0BD0548083003F047FA03493D
:1041F0000122491CC81D03F0E9F9F2E7C02A00209A
:104200009C33002038A20200B99C020010B5014680
:104210000B48FFF7E9FE040010D10A4803F078FBD1
:1042200060B9084906480839FFF7C3FE30B90549A7
:1042300001220839034803F0E5FA0446204610BD80
:10424000AC330020C82A002030B5EFF3108172B6DD
:104250000D4A9468012324B10370002900D162B68D
:1042600030BD93604FF0E023D3F88051074C2540D8
:104270001560C3F88041D3F8844154605A17C3F8DD
:10428000842100220270E8E7BC330020FC06FFBD59
:104290000B498A68002A11D000280FD1EFF3108053
:1042A00072B60B684FF0E022C2F800314B68C2F8DA
:1042B000043100228A60002800D162B670470000F5
:1042C000BC3300202DE9F041064608680C46411C2D
:1042D0004FF0A0474FF0010506D005FA00F1C7F8EE
:1042E0000815206803F01BFD6068411C02D0002106
:1042F00003F00CFD3079204901EB4010A169007FEB
:1043000000283068C0F8241525D0607D227D3168F2
:104310001043C1F86C05D4E900123068C0F80C15E0
:10432000C0F8142524E0A068411C02D0002103F04D
:10433000EDFCE068411C05D08540C7F80855E068F1
:1043400003F0EDFCD4E902123068C0F80825C0F88B
:104350001015BDE8F081607D217D32680843C2F808
:104360006C05D4E900123068C0F81425C0F80C15AB
:10437000207D0128D7D0ECE72C3200202DE9FC4726
:10438000002517880646158090F82D0014468946AA
:1043900030B13A462146484600F008FB050009D1F5
:1043A000B0784FF00C0A18B32088C846001DB842F8
:1043B00002D95046BDE8FC87684679DF0028F9D16C
:1043C0002088032108F8001020881921401C80B2A1
:1043D000208008F800102088401C80B2208000EB6C
:1043E0000801BDF8000005F0BEFD218808442080CA
:1043F000F0780222C8B1218896F9033001F1030C4C
:104400004846BC45D5D8425421884FF0010C491C80
:1044100089B2218000F801C02188491C89B221801D
:1044200009F801302088401C20807068B8B12188CC
:1044300090F9003001F1030C4846BC45B9D842540C
:1044400021880A22491C89B2218042542188491CB2
:1044500089B2218009F801302088401C20803089F1
:1044600050B1CDE900474B460622022106F1080073
:1044700005F024FE05009DD1308A50B1CDE90047FA
:104480004B460722032106F1100005F017FE050038
:1044900090D1308B50B1CDE900474B461522142105
:1044A00006F1180005F00AFE050083D1306A30B12C
:1044B0003B462246494601F0F7FD0500DBD1706A14
:1044C00030B13B462246494602F0FCFA0500D2D103
:1044D00096F82C0038B13B4622464946304604F057
:1044E00005FE0500C7D1307838B13B462246494623
:1044F000304602F0F5FB0500BDD128465AE7F0B57D
:104500000C4693B01F210726ADF80010ADF804103B
:10451000002750B1C17849070DD56A4602A9FFF7B7
:104520002DFF002808D102AD02E00025ADF8007093
:104530006CB1E07810B1304613B0F0BD01AA0AA901
:104540002046FFF71BFF0028F6D10AAA02E000224E
:10455000ADF80470BDF80400C3B2BDF80000C1B2EC
:10456000284672DFE8E780F82410704770B50D0028
:10457000044653D0F4B3012020700026E6702022B8
:1045800005F17801201DFEF729FF84F82460D5F895
:104590009800C4F8CC00D5F89C00C4F8D0004FF6C1
:1045A000FF70A4F8C800C4F82560A4F8296084F856
:1045B0002B6004F130003C210646FEF728FF2878E6
:1045C00084F83000A87884F83200E87884F8330062
:1045D000687884F83100D5E90401C4E91001D5E90F
:1045E0000201C4E90E01D5E90601C4E9120195F8FA
:1045F0002D0000E012E084F85D00686AD8B104F193
:10460000780104F16C0061676065696A098801805E
:10461000686A616D80888880002008E00E2070BD87
:10462000696A22188968095C82F87810401C616DFB
:1046300089888142F4D8A86AE8B104F1A400C4F8DA
:10464000A0000C38A065A96A89888180A86AA16D3C
:1046500000880880002006E0A96A22188968095CA1
:1046600082F8A410401CA16D89888142F4D895F885
:104670002C0084F85C00286A48B104F1C40020656D
:10468000296A49884180286A216D00880880686805
:1046900000B1606305F13C013046BDE87040FFF7B2
:1046A0002EBF10B50288102A1AD0112A1FD01B2A3B
:1046B0001CD1007A0C46002818D1E0780521401C56
:1046C000B0FBF1F201FB1201204600F055F8002882
:1046D0000CD0D4F8D010002908D0BDE8104008470D
:1046E000C27B012A02D18088A1F8C80010BD0C4607
:1046F000002184F8D4108088B4F8C8108842F5D11D
:1047000020790028F2D10121DEE710B50C460228FD
:1047100001D0032811D1607800280ED000206070ED
:10472000E178204600F028F8002806D0D4F8D01010
:10473000002902D0BDE81040084710BD10B504465E
:1047400074DF012084F8D400002084F8D60006200D
:1047500084F83300002104F13000FFF7D0FE002878
:1047600009D1E178204600F007F818B1D4F8D0104C
:1047700001B18847002010BD2DE9FF4704460078AD
:104780000F4638B1E770002003F0D4F9012628B1B4
:104790006670D2E0082004B0BDE8F0870025C4F8B8
:1047A0002550A4F8295084F82B50A07910B1E07856
:1047B000012806D0E07970B1E078012801D0022804
:1047C00009D1D4F8CC1021B184F82C600820884796
:1047D00001E084F82C5004F1260100200A5C0AB1A3
:1047E000304603E0401C0628F8D300204FF00208B2
:1047F0004FF0030A4FF00409012F06D0022F09D011
:10480000032F0CD0042F12D10DE0A17911B108B102
:1048100030460DE0E17911B108B1404608E0207A58
:1048200008B1504604E0607A08B1484600E02846E6
:10483000E070D4F8CC1041B1032801D0042804D191
:10484000607910B194F8D400A8B184F8D5500095DF
:104850000295019503958DF800508DF80850E17888
:1048600004F1250004F13002052958D2DFE801F0F7
:10487000670A131F3B0084F8D65084F8D5600720E0
:104880008847E4E7A67001908DF80060ADF80C5001
:10489000ADF80A5043E084F8028001908DF8006082
:1048A000208AADF80C00A089ADF80A0037E0A08A94
:1048B000ADF80A00208BADF80C00607980B194F857
:1048C000D40068B994F8D60050B18DF8088084F807
:1048D000339000211046FFF712FE00BB05211AE0BD
:1048E00084F802A01BE0A08BADF80A00208CADF884
:1048F0000C00607988B194F8D40070B994F8D600AF
:1049000058B18DF8088084F8339000211046FFF7E5
:10491000F6FD20B90621A17001E084F80290E0784C
:1049200030B194F82410684673DF00287FF433AF69
:10493000D4F8CC1009B1A078884700202BE7A570E7
:10494000F6E7000070B5040012D001461C2214489E
:10495000FEF744FD1248134D0560206850B17ADF20
:10496000002806D12068016829604068686005E079
:104970000E2070BD0B487BDF0028FAD108484FF6A7
:10498000FF711438084A20F8041B054934390160C6
:104990000021FFF737FB0028EBD0032070BD00009B
:1049A000EC300020902A002025A002007CB50546AE
:1049B00008880C460930904201D90C207CBD68461D
:1049C0006DDF0028FAD121880820685420881B2137
:1049D000401C80B2208029542088401C80B2208056
:1049E0002844DDF801100160BDF8051081802088A1
:1049F000801D80B220809DF80010490800D0012160
:104A000029542088401C208000207CBD70B5454D75
:104A100001880022EE8888B00446232945D020DC96
:104A200041484FF003031129008803EB004024D0D4
:104A30000EDC012952D010292BD13CA103F084FBBC
:104A4000072000F073FE08B1FFF7A8FAA0881FE066
:104A5000132924D021291CD10092A08869468FDF18
:104A600029E03B2936D051293CD0522926D056295D
:104A70000FD18088132176DF25E02FA103F064FB9E
:104A8000002000F053FE08B1FFF788FA4FF6FF70E0
:104A9000E88008B070BD00BFFFF780FAF9E7002397
:104AA0001A46852130467FDF0DE000920192808812
:104AB0000022694690DF0028EED1EAE700231A467B
:104AC00019463046A9DF0028E3D008B0BDE87040A1
:104AD000FFF764BA8088132176DFF4E7A08800210D
:104AE00066DFF0E71022A11D04A8FEF777FC9DF811
:104AF00010100029CDD09DF81800042803D00628F6
:104B000001D00528C5D102290AD001208DF8000066
:104B10004FF4C170ADF80400A0886946A8DFCAE769
:104B20000220F3E7682A0020942B0020436F6E6E6A
:104B30006563746564000000446973636F6E6E653D
:104B4000637465640000000010B51A4C0188606849
:104B500010290ED011292BD1401E606028D1FFF7FB
:104B600078F9002824D02168002921D0BDE8104020
:104B70000847D0B900210122084600F0B5FD08B170
:104B800007280FD107220221012000F0ADFD08B156
:104B9000072807D104220221002000F0A5FD20B142
:104BA000072802D0216801B188476068401C606016
:104BB00010BD0000882A00202DE9F04701883B4EF7
:104BC00040F2F3194FF6FF7510291BD011293ED082
:104BD000122954D0502946D1C188F289841D9142AE
:104BE00041D1618902293ED18688304601F028FCF6
:104BF000050038D004F10C0000F07EF9A8B3294676
:104C000030464EE0C17B8788044601292BD1A84657
:104C1000284601F015FC050017D02F8000202872CF
:104C2000234843464A460168C5F80A104068C5F85B
:104C30000E0004F1100105F10A0001F0CBFC6872CE
:104C4000F08900280FD129462AE0042013E080884B
:104C500001F0F6FB040006D06068FFF753FA08B1D4
:104C600004F0E6F92580BDE8F087FFE76868FFF704
:104C700049FA0028F7D0BDE8F04704F0D9B9878891
:104C80000646384601F0DCFB0400ECD02B464A46D1
:104C900006F1080104F10A0001F09CFC6072214653
:104CA0003846BDE8F04701F045BA0000EC3000207E
:104CB000902A00202DE9F047044603883F4801224E
:104CC000A4B000F1480A102B09D0112B54D01A2B94
:104CD00070D1217AB2EB111F53D2012352E0D0E9F7
:104CE00011218A430546011D12A804F074F94422DB
:104CF00012A901A8FEF772FBDFF8C0900026374624
:104D000009F144090DF104080AE000BF08EB460070
:104D10001D2283884946281D009704F021F9761C3E
:104D20000198B042F2D8686CA688C04304F03AF902
:104D3000A0F57F41FF3917D005EB400001238680A5
:104D400032465146281D04F06BF90123324649468C
:104D5000281D04F065F9E07B02280BD000231749D9
:104D6000A2884C31281D20E024B00420BDE8F04783
:104D7000FFF714B90123F2E70023A2885146001D72
:104D800013E000230D490546A2885031001D04F0B0
:104D900047F9207A0221B1EB101F01D2012300E074
:104DA00000230649A2885431281D24B0BDE8F047ED
:104DB00004F036B924B0BDE8F087000008310020C7
:104DC00030B5174B0D4604000FCB85B08DE80F00B2
:104DD00023D015B34FF6FF70A0822868A061002091
:104DE000A0752146684662DF002814D120788DF82E
:104DF00012000120ADF81000A21C04A9A0DF0028B9
:104E000009D12946204603F08EFF002803D1294608
:104E1000204604F09FFE05B030BD0E20FBE70000E9
:104E20001CA202007FB5002917D0002815D00288E7
:104E3000102A0DD0112A0DD0502A0FD0572A0CD18C
:104E40001A4B1868D3E902238DE80F0089692AE01C
:104E5000808801E04FF6FF7088827FBD01910C468B
:104E6000821DC3880989002512308B4202D15189E5
:104E700002290CD0A1898B42EFD1A1690029ECD085
:104E800002905089ADF80C008DF800500AE000F057
:104E900033F818B10120A075022001E0A5750320A8
:104EA0008DF80000A169684688477FBD0CA202000A
:104EB0001FB560B1838AA3F57F44FF3C09D0837D91
:104EC0003BB11388F42B06D9072004B010BD0E2087
:104ED000FBE70820F9E70023009301930293039373
:104EE0008388CDE90221ADF8003001218DF8021050
:104EF000808A6946A6DFE8E7007800F00100704785
:104F000070B51C0005D0E5691DB1A378012B03D055
:104F100004E04FF0FF350EE040F080001346667865
:104F20000A4601463046A8470546616A012088477F
:104F30000DB16FF00105284670BD1CB5044603F0A5
:104F4000E7FC002817D1A078012807D123460122C9
:104F500001A97F20FFF7D4FF00280CD123460122AE
:104F600069460020FFF7CCFF18B99DF80000D12852
:104F700002D06FF002001CBD2070FF20E0702046C0
:104F800000F0FEF91CBD38B50446002000900D4627
:104F9000084603F0BDFC10B14FF0FF3038BD2B4682
:104FA000022269467820FFF7ABFF0028F6D19DF872
:104FB00000209DF8011042EA0121218038BDF8B59A
:104FC00006460D4600207178441E07460D291CD266
:104FD000DFE801F0071C2E2828343A4640224C6FA7
:104FE0008400284603F094FC70B96EB1341D294644
:104FF000204601F013F9002807D12A462146304601
:10500000BDE8F84000F028BE2046F8BD29463046ED
:10501000BDE8F84004F0A4BA29463046BDE8F8409F
:1050200004F0FDB929463046BDE8F84004F038BB2D
:1050300029463046BDE8F84004F0F5BA2946304626
:10504000BDE8F84004F050BA29463046BDE8F840C3
:1050500004F090B829463046BDE8F84004F064B941
:1050600029463046BDE8F84004F0E2B8284603F08F
:105070004FFC0028C8D1002EC6D08DF800702B46FA
:10508000012269465120FFF73BFF20B99DF800003F
:1050900040F010003AE00028B7D12946304604F02D
:1050A0006BFB0028B1D129463046BDE8F84001F03D
:1050B00079BD002DA8D0686A0028A5D08DF80070B1
:1050C0002B46012269465120FFF71AFF0028E2D142
:1050D000317A9DF8000061F3451017E0002D93D060
:1050E000686A002890D08DF800702B46012269462E
:1050F0005120FFF705FF0028CDD19DF80000317A3F
:1051000020F04000C1F3400140EA81108DF800001A
:105110002B4601226946512000F058F8BBE7F8B54C
:10512000040015D0606A98B100208DF80000207945
:105130006FF00305A0F11001022928D8217A8842D6
:105140001AD02146684603F043FD060003D011E063
:105150004FF0FF30F8BD23460122211D7E2000F0D4
:1051600035F80646207A102802D1616A0520884762
:10517000217921723000EDD1207B0026142808D03F
:10518000152806D0172804D02E463046F8BD2846EC
:10519000F8BD217C8842F8D02346012204F10C019D
:1051A0007E2000F013F80646207C142802D0172831
:1051B00003D008E05120616A04E0207B152802D169
:1051C000616A0A208847207B2074DEE72DE9F047DA
:1051D0004FF000061C00054690468946374608D029
:1051E000D4F820C0BCF1000F03D0A078012803D070
:1051F00004E04FF0FF3625E005F07F05207A112806
:1052000002D0207C152818D113460A46607829461A
:10521000E0470646616A0120884710E0266A09EBEC
:105220000702607801232946B0476D1C0646616A73
:10523000EDB2012088477F1CFFB24745EED30EB187
:105240006FF001063046BDE8F08738B5040063D042
:10525000606A002860D0002521466846009500F06D
:1052600023FC002857D12346012269464020FFF73E
:10527000ADFF00284FD161796172E179E172616A15
:10528000012088472346012241200DF10101FFF74B
:105290009DFF00283FD1A179A17221466846009563
:1052A00000F038FC002836D123460122694642200E
:1052B000FFF78CFF00282ED1617B6174E17BE174E4
:1052C000616A012088472346012243200DF1010134
:1052D000FFF77CFF00281ED1A17B2046A174FFF7B9
:1052E0001EFF002817D123468DF800500122694681
:1052F0000220FFF705FE9DF80010C1F343018DF871
:10530000001001290BD002290CD003290DD0072948
:1053100001D16FF0080038BD4FF0FF3038BD6FF09D
:10532000050038BD6FF0060038BD6FF0070038BDCE
:1053300038B5044600208DF800000D46084603F0FD
:10534000E7FA10B14FF0FF3038BD2B460122694615
:105350007B20FFF7D5FD0028F6D19DF80000012C39
:105360000BD020F0080000BF8DF800002B46012272
:1053700069467B20FFF72AFF38BD40F00800F3E7BD
:1053800038B504004FF0B6008DF800000DD0606A0B
:1053900058B12346012269467E20FFF717FF0546D4
:1053A000616A0F2088471DB11FE04FF0FF351CE0F8
:1053B000A078012807D12346012269467F20FFF704
:1053C0009FFD050011D10220E071082161711022BA
:1053D00022710322A271E0736173142020730020F4
:1053E000A0736068A060E0682061284638BD0000B6
:1053F0002DE9FC41114F00201C461646B8700546A9
:1054000041F080008DF80400601CC0B200900C4B8D
:10541000012201A90B4802F067F8B8780028FCD0F7
:105420000021074804E0421852787254491CC9B25E
:10543000A142F8D32846BDE8FC810000682A00207C
:10544000E82F002090A102002DE9F84F154F4FF0F2
:1054500000081C469246894687F802804646581C3A
:1054600001F0FAFA09F07F0105460170002005E01D
:105470001AF800102A18401C517080B2A042F7D3CD
:10548000641CE2B2002329460748CDF8008002F0F0
:105490002BF8B8780028FCD0284600F03BFF3046B7
:1054A000BDE8F88F682A002090A102000149085C3D
:1054B00070470000C4A102000649095C4FF0A040FB
:1054C000D0F81005C84010F0010000D0012080F095
:1054D00001007047C4A1020007490B5C4FF0A041D6
:1054E000D1F804250120984020EA0203C1F80835CC
:1054F0001040C1F80C057047C0A102000249085CC9
:10550000012102F049BC0000C0A102000249085C70
:10551000002102F041BC0000C0A102000649095C64
:105520004FF0A040D0F80405C84010F0010000D0B2
:10553000012080F001007047C0A102007CB500246A
:10554000084E25460122305D009500231146019545
:1055500002F094FB641C042CF4D3BDE87C4000F002
:1055600003B80000C0A1020010B500242046FFF7D8
:10557000C5FF641C042CF9D310BD10B500242046CF
:10558000FFF7C4FF641C042CF9D310BD10B502460C
:10559000064B4FF0FF3000215C5C944201D108467D
:1055A00010BD491C0429F7D310BD0000C4A102009E
:1055B00070B50C4E0C004FF0000530600BD0012090
:1055C00000F06AF808B1022004E0002000F064F85E
:1055D00000B10B202070706810B9FEF73AFC054648
:1055E000284670BD882A002010B5002000F0D0F9B0
:1055F00008B1062806D1012000F0CAF908B1062832
:1056000000D1002010BD00002DE9F0470D46814675
:10561000FFF7BCFF0446042836D2DFF874801B482D
:105620001C4EA8F10C0725B3012D0ED0022D2BD155
:1056300004EB440030444578002D25D0B96800299A
:1056400022D02846BDE8F047084704EB4401755CCA
:105650000E44717849B10E4A4FF40041093A80680E
:10566000FEF70CFD08B987F80390B17808F804102C
:10567000E2E78068FEF746FD04EB4401314418F888
:1056800004008D78A842D7D0BDE8F087C8A10200F9
:10569000842A00208C300020FFF70EBF01461048FE
:1056A00010B5C088042907D007290ED00A2915D1C2
:1056B000BDE8104004F06EB8132176DF0CE000283E
:1056C0000CD0BDE81040FEF769BCA0F57F41FF3962
:1056D00004D10448FFF732F80828F0D110BD0000CB
:1056E000682A0020E82E002070B50023042810D27C
:1056F0000D4D00EB4004012A02D101290CD00022FB
:10570000094E00EB4000304461B1012906D0022966
:1057100006D00723184670BD0E30C2B22A55F9E7ED
:105720004270F7E78270F5E78C300020044A0146AA
:1057300000201279D20702D0084600F04DB8704719
:10574000782A002070B506461E480024C0E9016191
:10575000B00720D50025012211462846FFF7C4FFD7
:105760006D1C0446042D02D2002CF4D013E094B931
:1057700040F2666204211448FEF79CFB04000AD143
:10578000FEF786FB040006D10F48104A0021001FD7
:10579000FEF738FC0446F00701D0FFF7CFFE74B9DE
:1057A00009480B4A00210C38FEF72CFC040006D1F6
:1057B0000548084A01210838FEF724FC0446204623
:1057C00070BD0000782A0020D4A102002D5A0200EA
:1057D00049660200893E02002DE9F05F6A4C0546E9
:1057E00000266078B34618B184F801B000F014FFC9
:1057F000664F4FF47A694FF4C87A4FF00108182DBC
:1058000062D2DFE805F0AC0C0C31404D62676B747E
:105810006B74BE7D7D7D7D7DACAFB2B5BEBE00201C
:10582000FFF77CFE00284FF0000008D0FFF766FE6F
:10583000022D02D14FF4E16008E0484606E0FFF790
:1058400065FE022D01D1C82000E05046410CC00386
:105850004FF4FA72801841F10001257052000023C4
:10586000FDF786FD01462AE00020FFF757FE0028DD
:105870004FF0000004D0FFF741FE4FF44870E5E719
:10588000FFF744FEDFE70020FFF748FE00284FF057
:10589000000002D0FFF732FECFE7FFF737FED4E774
:1058A0000020FFF73BFE00284FF0000002D0FFF77A
:1058B00025FE01E0FFF72AFE257041F69A1100222D
:1058C0003868FEF7DBFB064646E00020FFF704FEE3
:1058D000257008E0002051E025703DE084F801804B
:1058E0000120FFF7F9FD002240F6CD41E8E784F8FA
:1058F00001800120FFF7F0FD00224FF48041DFE737
:105900007868FEF7FFFB0646D5F1110000D02EB1F6
:105910000220FFF7F3FD84F802B01DE0012816D93C
:1059200080B2C8214843C117C90341EA5041C003AE
:105930004FF4FA72801841F1000152000023FDF784
:1059400017FD014600227868FEF798FB0646022004
:10595000FFF7DCFD84F802803046BDE8F09F00F0E0
:105960005BFEB9E700F058FEB4E700F055FE04E036
:1059700000F052FE0020FFF7C9FD0120FFF7C6FD31
:10598000AAE7FFF7FAFDA7E7782A0020C8A10200DE
:1059900010B5FFF78BFD032102F0D5F9002010BDF3
:1059A000F8B5861C00208DF800000C4601276846DB
:1059B000FEF74AFC0F4801682160D0E90012891AFD
:1059C00082680446511AB51C07E000BF00F0E2FEF1
:1059D000D4E90001401AA168091A491C8D42F5D882
:1059E0002068304420609DF80000FEF751FC3846E6
:1059F000F8BD00004035002030B482680468531CB4
:105A00008360A154D0E901128A4202D330BC01F074
:105A100098BF30BC70470000034803C8814201D1E1
:105A20000120704700207047403500200078022197
:105A3000FFF7EABD05494FF0FF32082841F8202062
:105A400002D3084480F8482070470000D431002079
:105A5000F0B54FF0FF3512B10023082601E008230E
:105A60000C260C4C05E000BF54F823707F1C04D0BA
:105A70005B1CB342F8D32846F0BD26185DB286F809
:105A8000305044F82310002AF5D1E11881F848007D
:105A9000F1E70000D43100200249084490F93000B9
:105AA00070470000D431002070B50D460B46044607
:105AB000014602224020FFF723FA002829D1697904
:105AC000001F0F2925D86A7A914206D0227801F06A
:105AD0000F0122F00F0211432170E979022918D831
:105AE000EA7A914203D0217821F070012170A979DE
:105AF0000022641C0C290AD8A87A814208D0207898
:105B000001F00F0120F00F000143217000E0024678
:105B1000104670BD70B50D460B4604460146022284
:105B20004220FFF7EDF900282AD1697B001F0D29DB
:105B300026D86A7C914206D0227801F00F0122F02B
:105B40000F0211432170E97B022919D822783023F2
:105B500022F0300203EA0111114304F8011BA97B72
:105B6000002204290AD8A87C814208D0207801F0BC
:105B7000070120F007000143217000E002461046B3
:105B800070BD000070B5084C050009D010342168C4
:105B9000002907D008682060496828468847F6E74A
:105BA0000834F4E770BD0000C03100202DE9F05F3B
:105BB00026484168F1B3DFF898B00E688146DBF8FB
:105BC000004087688078E11B21F07F45ED1CB0B96B
:105BD000DFF880804FF48030C8F84403C8F804032D
:105BE0001120FDF75DFD1120FDF765FD4FF0010A65
:105BF000C8F800A02F2001F043FA89F802A0B542AE
:105C000000D23546124BE8193C3320F07F40186033
:105C1000DBF800105A46091B21F07F41001B20F0E1
:105C20007F40C91C81420FD9106818602F2001F0F5
:105C300027FA00E004E0BDE8F05F1120FDF746BD63
:105C4000BDE8F05F03F038B8BDE8F09FAC2A002053
:105C500004150140001001402DE9FC410E46144698
:105C60000746114603F088FD002857D100258DF81E
:105C700000502346012269466220FFF741F970B9BE
:105C80009DF8000010F0020F0BD020F002008DF8FC
:105C900000002346012269466220FFF797FA002898
:105CA0003CD12146384600F03FFF002836D18DF820
:105CB00000502346012269465920FFF721F978B99F
:105CC0009DF80000317820F08000890940EAC11079
:105CD0008DF800002346012269465920FFF776FA25
:105CE00000281BD18DF800502346012269465F2011
:105CF0000195FFF705F9002810D19DF80000234613
:105D000020F003008DF800008DF8040070788DF805
:105D10000500022201A95F20FFF758FABDE8FC81C7
:105D2000F8B5054600200E468DF800000B4601220E
:105D300069465420FFF7E4F800281DD12878AC1CF0
:105D400001289DF8000018D0217820F02000C1F330
:105D5000001140EA411000BF8DF80000218800F0DA
:105D6000F000C1F3431101438DF8001033460122C6
:105D700069465420FFF72AFAF8BD217820F0100078
:105D8000C1F3001140EA0110E6E7000038B504460F
:105D900000200D468DF800000B4601226946532075
:105DA000FFF7AEF8002825D12178A01C01299DF825
:105DB000001020D0007821F0800141EAC01121F0CC
:105DC0004001C0F3400241EA8211C0F3800221F099
:105DD000200141EA421121F01001C0F3C00041EA64
:105DE000001000BF8DF800002B46012269465320A9
:105DF000FFF7ECF938BD007821F0080100F001024E
:105E000041EAC20121F00401C0F3400241EA8201EB
:105E1000C0F3800221F0020141EA420121F00101B8
:105E2000C0F3C0000843DDE77CB5044600200D4602
:105E30008DF800005F260B4601900122694630462E
:105E4000FFF75EF800282ED19DF80000218820F091
:105E5000FC00C90840EA81008DF800002B460122B1
:105E600069463046FFF7B2F900281CD162202B4664
:105E700001226946FFF744F8002814D19DF800007C
:105E8000218820F00100C1F3402108438DF8000073
:105E90008DF80500A0788DF8040061202B460222C1
:105EA00001A9FFF793F97CBD38B5044600200D46E3
:105EB0000B460090022269466520FFF721F8002872
:105EC0002FD19DF800002B4620F00302207800F02F
:105ED00003011143C0F3810221F00C0141EA820168
:105EE00021F0F001000941EA00108DF800009DF852
:105EF000010020F03F022088C0F305211143C0F3C8
:105F0000803221F0400141EA821121F08001C00B72
:105F100041EAC0108DF80100022269466520FFF7B2
:105F200055F938BD38B5044640780D468DF8000067
:105F30000B46012269466020FFF748F900282AD164
:105F40002B46012269466220FEF7DAFF002822D1A3
:105F50009DF80000217820F00C0001F0030140EAD8
:105F600081008DF80000217820F03000C1F381011C
:105F700040EA01108DF80000217820F00200C1F302
:105F8000401140EA41008DF800002B46012269468D
:105F90006220FFF71BF938BD38B50D4600210446D5
:105FA0000091008810F0C00F08D0C0F381100128C4
:105FB00009D002280BD0032810D033E015208DF82B
:105FC0000000032007E02D208DF8000028E01D20B0
:105FD0008DF8000007208DF8010023E02B460222F7
:105FE00069467A20FEF78CFFE0B99DF80000217821
:105FF00020F01800C1F3410140EAC1008DF8000013
:10600000217820F00700C1F3C20101438DF8001090
:106010009DF80100218820F00700C1F3022101430F
:106020008DF801102B46022269467A20FFF7CEF840
:1060300038BDF8B5074600200E46154613460090B9
:10604000022269466320FEF75BFF00282BD1787897
:106050009DF80040032806D1308824F00701C0F3E2
:10606000C21040EA010431784023C1F3401003EA32
:10607000801024F040021043890920F0800242EA97
:10608000C1108DF800009DF80110307821F01F013B
:1060900000F01F0008438DF8010002222B466946DC
:1060A0006320FFF793F8F8BD2DE9F0411788064605
:1060B000B81D14460D46984202D90C20BDE8F08167
:1060C0003188072206290AD34FF4486C4FF6FF7334
:1060D000614501D9994202D17088062801D2104643
:1060E000ECE7604501D99842F9D1994203D0984232
:1060F00001D08142F3D80520E85520881221401CA8
:1061000080B2208029542088401C80B22080411910
:10611000308803F028FF2188084480B2208041198C
:10612000708803F020FF2188084420800020C5E704
:10613000FDF734BF38B54A7A0F4B62B100220A72BC
:106140005969002906D001228DF80020ADF802001F
:106150006846884738BD0A7A62B19B684C68024637
:1061600019462046FDF78AFF0028F3D0BDE83840E5
:1061700002F05EBF5B68F1E7EC3000202DE9F041F2
:1061800000260125144C22E06068226900EBC60756
:10619000387805FA00F1114217D08A43226101F0E4
:1061A000BDF802463878E36805FA00F1194002FAB2
:1061B00000F3994209D17978012901D0012100E049
:1061C000002151407A6802B19047761CF6B22078DF
:1061D0008642D9D3BDE8F081982A00200E4910B537
:1061E0000A784C780023A24212D0521CD2B20A7014
:1061F000022A00D10B70084A0B780C3252F8232087
:1062000002608868104420F07F408860012010BD43
:106210000360002010BD0000AC2A0020F8B5044641
:106220000D4600260B468DF800600122694650207D
:10623000FEF766FE00282BD12178C8079DF80000E4
:106240001AD020F00100C1F3400101438DF8001085
:1062500021F002002178C1F3800140EA41008DF86D
:106260000000217820F00400C1F3C00140EA810061
:106270008DF80000EE7005E020F007008DF80000BA
:10628000FF20E8702B46012269465020FEF79EFF52
:10629000F8BD30B50446006885B00D46806800281A
:1062A0001CD014216846FDF7B2F80195A06804904F
:1062B000207910B101280DD104E001208DF80000F3
:1062C000206904E002208DF80000E06800030290DD
:1062D00060690390206881686846884705B030BDD2
:1062E000826883881A4003689A5C0A708168491C36
:1062F00081607047C26883881A4003689954C168F6
:10630000491CC160704710B50446C0B2FDF77EFF5E
:10631000204610BD10B5002821D0114B0022001FCF
:10632000196803E0814203D80A4649680029F9D177
:1063300052B11368841A9C4204D10068184410605A
:10634000104602E0506000E0186039B102680B1A94
:10635000934203D10B681A4402604968416010BD42
:10636000382B00200B484A88C3889A4211D10A88EA
:10637000A2F52063773B0CD18988C91E8AB20281BD
:10638000054803211346008801EB004003A101F0FA
:10639000E6BE7047682A0020942B00204461746197
:1063A000206C656E2069732073657420746F2030D3
:1063B000782558282564290010B50949094800F0B6
:1063C00050FD08B1FDF7EAFD4021064800F03DFD13
:1063D000002803D0BDE81040FDF7E0BD10BD00006F
:1063E00065630200D42E00202DE9F041124E0746CD
:1063F0000125BD403068FDF785FE00280DD10F4C0A
:106400002069284207D1384600F088FF0028E0685C
:1064100005D0284304E0A8432061BDE8F081A843EB
:10642000E060206928432061A1683068BDE8F04140
:106430000022FDF723BE000030A20200982A0020AF
:106440000146034802888A4200D0002070470000BD
:10645000D83000203EB54FF0A040D0F804150822F7
:106460008A43C0F8082501F00801C0F80C150D4951
:106470000D48FEF788FD0C4C241F10B92078401CF5
:106480002070227809A16846FDF7FEFB207800F015
:106490001DFCADF8080002AA69460548FEF708FD94
:1064A0003EBD0000C02F00206C2A002025640000A3
:1064B000B82E00202DE9FC5F0E008346DDE90C4775
:1064C000C6F1000098469246814600D40846012550
:1064D00003E000BF90FBFAF06D1C5045FADAA845C6
:1064E00000D9454624B1002E01DB780700D5641E93
:1064F000B80702D5B8F1000F0AD0F80708D13CB1AF
:10650000A54205D220215846641EFFF775FAF6E72A
:10651000002E02DA4E462D2102E0780703D52B210A
:106520005846FFF769FA07F0030002280BD1B8F1CB
:10653000000F08D13CB1A54205D230215846641E57
:10654000FFF75AFAF6E7CDE900474346524631468F
:10655000584603F00DFDBDE8FC9F000070B50E46E7
:106560000446007918494FF4A27501EB4010017FF1
:106570002068A1B14FF4887102F0C4F94FF4907112
:10658000206802F0BFF94FF49271206802F0BAF966
:106590002946206802F0B6F90C49206809E04FF45A
:1065A0008E7102F09EF92946206802F09AF9084996
:1065B0002068C0F80413206800F0FEFD3146BDE8F5
:1065C000704000F0DDBD00002C32002010030200FE
:1065D00080000200F0B58488A518944200D82246B5
:1065E000A41AC288D6189A4200D81346D21A4B88E9
:1065F0000788BB420CD34088834209D88888A042D0
:1066000006D3A84204D8C888904201D3B04201D929
:106610000020F0BD0120F0BD0A4810B5807860B1BF
:10662000002401E0022C06D02046FEF767FF641C20
:10663000042CF7D310BD0324F6E7BDE81040FEF7A5
:1066400093BF0000782A002003480179C90702D0CF
:106650000078FFF7C1B87047782A0020064901206A
:10666000086006480168C1F300410029FAD10449D5
:1066700000208870704700000C00004018040040A3
:10668000C0310020F72101801721418000210171D4
:106690004171FB2181711B21C17170472DE9F047C8
:1066A000394E002780463D46DFF8E090D6F804A03A
:1066B00057E003D00446D0F81C8035E099F800205C
:1066C00002EB4201521CD2B289F8002009EBC10151
:1066D00099F80230091D9A4201D189F800504868A2
:1066E0000A780446012A12D0022A02D0032A3BD19A
:1066F00008E003F091F900B10127257434E0057436
:10670000C06900E070680028F9D170602CE0207C3E
:1067100050BB88686060C868A0600869E06048692C
:10672000A061F07800B165606268B168184B501ADA
:1067300020F07F40984202D2A168084406E0881AFF
:10674000A16820F07F40814202D9081A206000E051
:10675000256065600120A56020742046E56103F096
:106760003DF9B8F10000A4D199F8001099F80100A2
:106770008142A3D117B97168514502D00120BDE80B
:10678000F0870020FBE70000AC2A002090320020B8
:10679000FFFF7F002DE9FE43214DD5E9014704EAC3
:1067A000070005EB800605F583600C3600F0ECFA77
:1067B00005F21440804600F0E7FA0AE0C0F38911C0
:1067C00001EB9050641C044404EA070005EB8006CA
:1067D0000C3630688107F1D00020694604EA0702D0
:1067E00005EB8202641CD26841F82020401C02287C
:1067F000F4D3009800F00300022800980AD0C0F3F8
:1068000083100444404600F0B9FA002800D06C60C0
:10681000BDE8FE83032101EB905004EB9004F1E707
:1068200040350020A8B000F083FD08B1FDF7B6FBAD
:1068300071480024714A006800908DF80140694653
:10684000142000F00FFD08B1FDF7A8FB0121142072
:1068500000F0B6FCFDF7E8FB08B1FDF79FFB6649C9
:1068600018221C316846FCF7B9FD65480690654959
:106870004FF48070CDE9070109900723624A06A909
:106880006846FDF769FC08B1FDF788FB002001F0C0
:10689000C5FC08B1FDF782FB01F072FB5B490320E8
:1068A000FEF750FF08B1FDF779FB69460020FEF7BF
:1068B0007FFE08B1FDF772FB01F04CFF08B1FDF758
:1068C0006DFB69460120009401F0E8FD08B1FDF779
:1068D00065FB684601F08EFE08B1FDF75FFB02F034
:1068E00073FF02F0ADFB9DF8080049A120F00F00F6
:1068F000401C20F0F00010308DF808000C2202A897
:106900007CDF08B1FDF74AFB00941020ADF80000D1
:106910003C200194ADF80200ADF804404FF4C8707B
:10692000ADF8060068467ADF08B1FDF737FBFFF7E0
:1069300043FD3B48009069463A48FEF741FA08B1EA
:10694000FDF72CFBA0216846FCF761FD02208DF8C5
:1069500000008DF8024005208DF803000120ADF8FD
:106960004C008DF87C004FF496702F4922901491C2
:10697000B42023902D4826902A4869463030FDF7F0
:10698000F5FD08B1FDF70AFB264801213030FDF77F
:10699000EAFD1C216846FCF73AFD4FF42030CDE9B2
:1069A00000404FF4702002902148059003252148B3
:1069B0008DF80C500690ADF80E408DF810406846EA
:1069C000FDF7C0FF08B1FDF7E9FA1BA0FDF74CF990
:1069D0001D481EA1008805EB004001F0B5FB1148E1
:1069E00003213030FDF7C8FE00E03EDF0028FCD078
:1069F000FDF7D4FAF9E700008CA10200556402000B
:106A0000B82C0020B82D00204D9C02009D5602009D
:106A1000537465705F636F756E746572000000007B
:106A200029890200B82E0020722A0020B9890200AC
:106A3000DD890200316102000D0A55415254205394
:106A40007461727421000000942B0020554152544F
:106A50002053746172742100F0B50B30154D20F095
:106A600007010024144A0FE003688B420BD38B42CA
:106A700005D95E1A43184768C3E9006700E0436818
:106A8000136002C004E0021D10680028ECD120460B
:106A9000002802D1286808B10020F0BD064A074846
:106AA0001060074A121A22F00702C0E900240120F0
:106AB0002860D7E73C2B0020382B0020EC3B00203F
:106AC000E85B002070B5144682880E460546208893
:106AD000111D0144921C994201D8FE2A01D90C20B3
:106AE00070BD521C32542088FF21401C80B220808F
:106AF00031542088401C80B220808119288803F0FE
:106B000032FA2188084480B22080AA8842B1A9685C
:106B100041B13044FCF762FC2088A98808442080F9
:106B2000002070BD072070BDF8B5054600200E4658
:106B30000B460090032269465520FEF7E1F9002834
:106B400012D1687816499DF800409DF80220085C33
:106B50002B788443824343B1012B09D0022B09D007
:106B6000032B0DD06FF00300F8BD8DF800400DE051
:106B70000443FAE702438DF802208DF8004007E055
:106B800004438DF800406878085C02438DF80220C9
:106B90003346032269465520FEF718FBF8BD000076
:106BA0002CA40200F8B5054600200E468DF8000022
:106BB0000B46012269465620FEF7A2F9002811D1A2
:106BC00069781548425C9DF80000904320EA021461
:106BD000287840B1012809D002280CD003280ED013
:106BE0006FF00300F8BD8DF800400EE044EA02109B
:106BF0008DF8000009E022438DF8002005E042EA0C
:106C0000040040EA02118DF8001033460122694663
:106C10005620FEF7DBFAF8BD2CA402002DE9F04760
:106C2000C7880446181D16468946B0FBF7F1B0FB2D
:106C3000F7F207FB12009A193A44D21CB2FBF7F2A2
:106C4000DDF820A001E02468491E0029FBD13D1A8F
:106C50008846B54216D818E0BAF1000F05D02118C1
:106C600009EB08002A46091D04E0204409EB08014D
:106C70002A46001DFCF7B2FB00202468761BA844BE
:106C8000B74201D9354600E03D46002EE4D1BDE8CB
:106C9000F087000030B50B46024601F0EDFA63B113
:106CA0000021094C0CE000BF01EB410304EB83031E
:106CB00015685B88AB4202D11160002030BD491CD1
:106CC0008142F1D3052030BD402B002001460A222D
:106CD000002002E091FBF2F1401C0029FAD170473C
:106CE000F8B50E46017814460546012901D16878A9
:106CF00030B12088821C9A422DD8012902D006E0AA
:106D00000720F8BD69780144891C994223D8181AD4
:106D1000801E87B2ADF800702188B01C0844694617
:106D20007DDF0028EDD12878022805D1BDF80010BC
:106D3000B94201D809210AE00821012805D1687863
:106D4000B84202D8ADF8000001E0ADF80070BDF81F
:106D50000000FE2801D90C20F8BD2288401CB05448
:106D60002088401C80B2208031542088401C208024
:106D7000BDF80010084420800020F8BD08B50021AF
:106D80006A46FCF7AEFA08BD08B501216A46FCF771
:106D90009BFA009808BD38B5044600258DF80050D0
:106DA0006846FDF751FA21686268086890420ED97A
:106DB000401E08600178238AE26801FB0325227ADD
:106DC0002168101AC0B20A79824200D208719DF877
:106DD0000000FDF75DFA284638BD38B505460020AD
:106DE0008DF800000C466846FDF72EFAE868298AFF
:106DF000201AB0FBF1F12A681068431C136001707F
:106E00009DF80000FDF744FA38BD10B530B1017AA5
:106E100042680368891AC9B21A6006E00E2010BDE4
:106E200003681A68541C1C601170491EC9B2F7D25D
:106E3000006800210171084610BDC20800F0070378
:106E40000120895C98400840704728B1A1F11702E1
:106E5000E12A03D3072070470E20704701800020ED
:106E6000704710B560B10161F72120F8021B20F8CE
:106E7000021BFB2100F8021BFFF704FC002010BDE1
:106E80000E2010BD2DE9F043858895B00C46002DED
:106E90003DD10188DFF824810026DFF82491012705
:106EA00024293CD006DC102909D011290CD0232933
:106EB0006DD150E03A290BD0552968D12AE001461E
:106EC000204601F099FD62E0A01DFFF7DBFB5EE0CC
:106ED0002246408934F8061F814200D80846608067
:106EE000172800D217206080106970B1607960B1F6
:106EF000D8E90010CDE90310ADF80E506088ADF868
:106F00001000136903A9104698476671267115B0E1
:106F1000BDE8F0830146204601F0BCFD37E0011DCD
:106F2000342206A8FCF75AFABDF81800BDF81C2058
:106F300004EBC0014A7322694AB3D8E90432CDE9AF
:106F40000432ADF81200487B8DF814002269204607
:106F500004A990471BE00496059630F8041F04EB43
:106F6000C1020179127B8A4200D21146ADF810109D
:106F7000ADF812100088002204A990DF020006D0AC
:106F8000B9F800000F4907EB004001F0E1F8A07AE2
:106F90000028BCD0E18828469EDF02000BD0112AD1
:106FA000B5D0B9F8000015B007EB0040BDE8F043DC
:106FB000054901F0CDB8A672E772A8E7F4A1020076
:106FC000402B002048A50200C0A4020000F1804030
:106FD0000068002800D00120704708B500F180400B
:106FE000002101600068009008BD4FF47A714843A9
:106FF000AFF3008000283ED01F49204A096800BF37
:1070000000BF00BF00BF00BF00BF00BF00BF914274
:107010002FD000BF00BF00BF00BF00BF00BF00BF38
:1070200000BF00BF00BF00BF00BF00BF00BF00BF68
:1070300000BF00BF00BF00BF00BF00BF00BF00BF58
:1070400000BF00BF00BF00BF00BF00BF00BF00BF48
:1070500000BF00BF00BF00BF00BF00BF00BF00BF38
:1070600000BF00BF00BF00BF00BF00BF00BF00BF28
:1070700000BF0138C3D17047342B00200024F40036
:1070800000283ED01F49204A096800BF00BF00BF4A
:1070900000BF00BF00BF00BF00BF91422FD000BFA4
:1070A00000BF00BF00BF00BF00BF00BF00BF00BFE8
:1070B00000BF00BF00BF00BF00BF00BF00BF00BFD8
:1070C00000BF00BF00BF00BF00BF00BF00BF00BFC8
:1070D00000BF00BF00BF00BF00BF00BF00BF00BFB8
:1070E00000BF00BF00BF00BF00BF00BF00BF00BFA8
:1070F00000BF00BF00BF00BF00BF00BF00BF01381E
:10710000C3D17047342B00200024F40070B50F4C1D
:107110000025207808B1852516E00021A160616076
:107120002161E1604FF0E020D0F80001012610F06D
:10713000010F03D10721002000F022F801F048FBE5
:1071400008B9034806602670284670BDC03100208B
:107150001805004008B500208DF800006846FDF7CE
:1071600073F80648C168491EC160C06808B9FFF7D6
:1071700075FA9DF80000FDF78BF808BDC0310020BE
:107180004907090E002806DA00F00F0202F1E0229A
:1071900082F8141D03E000F1E02282F8001400F0F0
:1071A0001F02012191404009800000F1E020C0F859
:1071B0008012C0F800117047000B40B27047000009
:1071C0002DE9F0418846054601F09EFC234E00283B
:1071D00028461AD0FEF760FC304490F84800800939
:1071E000032802D001280ED007E04FF0A040D0F8CD
:1071F0001005E84010F0010F05D003212846BDE836
:10720000F04100F0B1BD0221F8E701F089FC00284F
:1072100022D02846FEF740FC04464FF4807000EB75
:1072200084000F4F81B207EB8400D0F8102542F0A4
:107230000102C0F81025084600F0CEFDB8F1000F9D
:107240000AD02846FEF728FC56F82000002803D074
:107250000120A040C7F80403BDE8F081D43100202C
:10726000006000402DE9FC41DFF8A480044608EBF3
:107270000400002790F930001346C0170E46401C4A
:1072800001D0082741E0F27819462046FEF7E0FBDE
:107290000546401C38D0B07850B14FF0A04000EB0C
:1072A0008400D0F8001721F00201C0F8001707E0B1
:1072B00000217378204600910A46019100F0F0FC0D
:1072C000F078C0B11348317800EB8500D0F8102574
:1072D000114B1A40C0F810254FF4F8524FF44033C8
:1072E00002EA042203EA01410A43D0F810150A43D6
:1072F000C0F8102509E008EB0500327810F8481FA7
:1073000041EA8211017000E004273846BDE8FC81A3
:10731000D431002000600040FFE0FCFF4FF0A041AE
:10732000D1F81015C14011F0010000D001207047C4
:1073300070B5144D95F8540008B1082070BD0020B8
:10734000411E2A18401CC0B282F830102028F8D301
:1073500000242046FEF76EFB641CE4B20C2CF8D32C
:1073600007210620FFF70CFF4FF4BE7000F034FD3C
:1073700005494FF00040C1F80403012085F854008E
:10738000002070BDD431002000600040034890F818
:107390005400002800D0012070470000D4310020A4
:1073A0000121B1EB507F01D10120704700207047CF
:1073B0000121B1EB507F01D10120704700207047BF
:1073C0002DE9FC5F804640790C4600EBC001454842
:1073D00000EB8107387F10B10820BDE8FC9FC7E9AA
:1073E0000023207B4FF0A04B4FF00109012805D866
:1073F000227809FA02F0CBF80C0502E0207800F0C0
:10740000C4FC4FF0000ACDF800A0CDF804A020780D
:1074100053465246012100F067FC65784FF0FF3675
:10742000FF2D07D009FA05F0CBF80C05284600F02F
:1074300080FC00E03546A078FF2809D000220646EF
:107440000123CDF800A01146CDF804A000F04CFCBB
:10745000E078FF2804D000F098FCE07800F069FCA8
:1074600098F80500E17800EBC0021E4800EB8200AE
:107470008177D8F800002178C0F80815C0F80C55BD
:10748000C0F81065A168C0F82415227B617B01B1AA
:107490000121012A04D0022A05D0032A08D105E0DF
:1074A00041F0020104E041F0040101E041F0060175
:1074B000C0F854156179C0F8C015396811B1402180
:1074C000C0F804130721C0F80015386820B12179ED
:1074D00098F90400FFF754FE504687F81DA087F87E
:1074E0001C907AE74C3200201FB5069C00918DF865
:1074F000042002938DF80C400022694600F002F847
:1075000004B010BDF0B40D4613464179144A01EBA6
:10751000C10102EB81014A7F12B1F0BC112070471A
:107520000C6801221CB113F0140F00D14A7795E8C2
:10753000D0100C3181E8D01011F8154F24F0070459
:1075400001F821498C7FFF2C04D04FF0A046A240C7
:10755000C6F80C2500682A46F0BC02F059B90000B4
:107560004C3200202DE9F04105460079164F904637
:1075700007EB40140E46E07E10B10820BDE8F08114
:10758000707F20772846FCF79DFE5FEA0800606068
:107590003169216003D0317F2846FEF7DFFF28796B
:1075A00007EB4010007F0028286801D0082100E088
:1075B0000421C0F800150020E0752076A075012197
:1075C000E176A076DAE700002C3200202DE9F041C8
:1075D00005460079284E904606EB40140F46207F62
:1075E00018B10846FFF7DCFE80B1626800234FF453
:1075F00004704FF4017172B12A7906EB4212127FC6
:10760000002A2A6805D0C2F8080304E01020BDE86B
:10761000F081C2F80813E27DB2B1227E7AB16268CD
:107620005AB12A7906EB4212127F1AB12968C1F8C1
:10763000040302E02868C0F804131120E7E727617B
:10764000012384F8188005E084F817800020E760A3
:10765000607620762879424606EB40103946007F56
:107660000028284603D0BDE8F04100F073B8BDE81B
:10767000F04100F01BB800002C32002070B5044629
:107680000079094D05EB4010017F00290AD1807E69
:10769000002807D1204601F0A3FB2179012005EB4A
:1076A0004111887670BD00002C3200202DE9F05F7A
:1076B00004460079264901EB4015A87E184302D103
:1076C000204601F08DFB68680028206806D04FF442
:1076D0000171C0F804130020BDE8F09F4FF4A276BA
:1076E000314601F0FEF8B1464FF4927A4FF4847BB4
:1076F0005146206801F0F0F806465946206801F02E
:10770000EBF880464946206801F0E6F8074648EA6B
:1077100007003043ECD056EA070007D1294620681D
:1077200001F0E8FAE87D697E8842E1D80020E8753A
:107730000EB10320D0E70FB10F20CDE7A97E0120C5
:107740000029216801D00860C5E74860C3E7000050
:107750002C3200202DE9F05F894604464FF48875ED
:107760009A46904600260068294601F0CBF84FF46F
:10777000A2773946206801F0C5F82068C0F8349532
:10778000C0F838852068BAF1000F14D0D0F8001284
:1077900041F02001C0F800122179DFF8648008EB85
:1077A0004110406850B120684FF40471C0F80413D0
:1077B0003046BDE8F09F01210160EDE7AA46B946D9
:1077C0004FF4927B5146206801F097F807464946EE
:1077D000206801F092F805465946206801F08DF8BE
:1077E000014647EA05000843ECD02379002208EB64
:1077F0004310C27501B10326002DD9D00F26D7E75B
:107800002C3200202DE9F047054600793F4E904686
:1078100006EB40140F46207F18B10846FFF7C0FD65
:1078200030B1284600F074F820B11120BDE8F0878F
:107830001020FBE784F81680A7600027A78228792C
:107840004FF0010806EB40143E46207F00282868D0
:1078500025D04FF49079494601F054F84FF4AC7AB2
:107860005146286801F04EF82868A17DA268C0F84A
:107870004425C0F848152868C0F808806068F0B949
:107880004946286801F039F880465146286801F0D9
:1078900034F858EA0001F3D058BBA7750FE04FF455
:1078A0008E7A514601F01DF82868C0F808802146FC
:1078B000286802F03FF961684FF4807089B1304662
:1078C000B4E75146286801F007F810B9A08A484586
:1078D000F7D1A08A484505D02146286802F02AF948
:1078E00000E08146A08AA17D8842EAD3A08A48456B
:1078F00001D10F26D1E75146286800F0EDFF00289E
:10790000F9D02868C0F80C80C7E700002C320020AE
:107910000079044901EB4010807D002800D001204F
:10792000704700002C3200200FB408B503990029DD
:1079300004D004AA00926A4600F00FF801B05DF886
:1079400014FB10B582680446002A05D0D4E904036C
:10795000216898470020A06010BD2DE9FC479146A2
:107960000C00804676D014F8011B39B125290ED0C1
:107970004046FEF741F820780028F4D198F80C0032
:10798000002867D04046BDE8FC47FFF7DABF00207B
:10799000012221782B291BD02D2902D0302908D192
:1079A00002E040F0010001E040F00200641C002A07
:1079B000EFD100252A290ED02178A1F130020A2A20
:1079C00011D205EB850201EB4205641C303DF1E765
:1079D00040F00400EAE7D9F800100B1DC9F80030A8
:1079E0000968641C0D44217800232E290BD114F85A
:1079F000011FA1F130020A2A05D203EB830201EB39
:107A00004203303BF3E76C290DD068290BD069297C
:107A100021D00BDC252918D0582931D063290ED06C
:107A2000642915D117E014F8011FECE7702969D01B
:107A3000732932D075291BD0782909D120E0D9F8D3
:107A40000000011DC9F8001001784046FDF7D4FF81
:107A5000641C90E76CE0D9F800100A1DC9F80020FA
:107A60000968CDE900500A224046FEF723FDEFE702
:107A7000D9F800100A1DC9F8002009680A2206E09A
:107A8000D9F800100A1DC9F8002009681022CDE9B4
:107A90000050404602F06CFADAE7D9F800100027EF
:107AA0000A1DC9F800200E68C00705D112E0404643
:107AB000761C7F1CFDF7A0FF31780029F7D104E088
:107AC000202140466D1EFDF797FFBD42C0D9002D15
:107AD000F6D1BDE74EB13046FBF7A4FC074604E003
:107AE000202140466D1EFDF787FFBD4206D9002DBF
:107AF000F6D103E04046761CFDF77EFF3178002981
:107B0000F8D1A5E7D9F80000011DC9F800100568F3
:107B100030214046FDF770FF78214046FDF76CFFAD
:107B200008200021CDE90001034610222946B0E7D4
:107B3000BDE8FC872DE9F04128B1016819B1496918
:107B4000BDE8F04108470D4D0D480024461B1427A1
:107B50000DE000BF04EB840005EB8000016829B153
:107B60004969884710B10120BDE8F081641CB6FB6B
:107B7000F7F0A042EED80020F6E700000000000079
:107B80000000000008B1012808D1054801218170DA
:107B9000017809B9407808B100207047012070478A
:107BA000D02A0020012801D0032808D1044900224E
:107BB00001288A7000D00020C87001F039B87047E1
:107BC000D02A0020F0B52B4E074687B0307800252C
:107BD000F0B3294C022F206FC0EBC00004EB8001F2
:107BE000304602D0032F39D117E04560087910B133
:107BF000012833D10AE0D1E90502801A4FF48053FD
:107C0000984200D318461044886102E00869401C7D
:107C100008614A69904206D020E04268521C4260E6
:107C2000082A1BD945601C226846FBF7D7FB606F0A
:107C3000401E6067206F401C2067042800D1256724
:107C40003570022F05D00D216846FEF722FB05E0B6
:107C500001E00021F8E7707800B17570B07820B1CC
:107C600007B0BDE8F04000F0B9BD07B0BDE8F04096
:107C700000F0DEBFD02A0020C833002070B541EAF2
:107C80004201DDE904564FF0A04441EA830141EA94
:107C9000052104EB800041EA0641C0F8001770BDE1
:107CA00070B541EA4201DDE904564FF0A04441EAD3
:107CB000830141EA052104EB800041EA0641C0F856
:107CC000001770BD70B541EA4201DDE904564FF07E
:107CD000A04441EA830141EA052104EB800041EA26
:107CE0000641C0F8001770BD70B541EA4201DDE9F8
:107CF00004564FF0A04441EA830141EA052104EB18
:107D0000800041EA0641C0F8001770BD1CB5002292
:107D10000B46009211460192FFF7D4FF1CBD1CB523
:107D2000002100910B46012201911146FFF7CAFF85
:107D30001CBD1CB5002100910B460122019111468A
:107D4000FFF7D2FF1CBD4FF0A04202EB8000D0F83D
:107D5000002722F44032C0F80027D0F8002742EA7A
:107D60000141C0F8001770474FF0A04202EB8000BD
:107D7000D0F8002722F44032C0F80027D0F80027BE
:107D800042EA0141C0F8001770474FF0A0420121BC
:107D90008140C2F80815704701224FF0A04382408D
:107DA00011B1C3F808257047C3F80C2570470000CF
:107DB00018B5084B6C4601441B68009306E000BFF1
:107DC00054F82030D3F81035401C08C28142F7D84F
:107DD00018BD00002CA20200034908B50844002188
:107DE00001600068009008BD0060004002494058F2
:107DF000012800D0002070470060004070B5184A8C
:107E00000024D2F81034194609E00D7AA54205D1B4
:107E1000641C0A2CF7DB4FF0FF341FE0496800298F
:107E2000F3D1611C1AD00472D2F8101431B1496830
:107E30004160D2F81014486000250BE00021C2F820
:107E400010044160F8E700231A462946204600F056
:107E50001DFA6D1C00F010FAA842F4D8204670BD3F
:107E6000403500207047FBF78BBC704708B5034ACC
:107E700000924023024A00F005F808BDC1900200BC
:107E800040340020F0B595B01C4615460F46084614
:107E90001A9E00F0D3FA182109A8FBF7B8FA0E963B
:107EA000CDE909540023082203A9384600F0E0FA7E
:107EB000059806900498ADF81C0000208DF820006D
:107EC0000398082600F00300012802D002281DD0E4
:107ED0003CE003983346850AC0F3C2008DF81E00CB
:107EE00003980FA9C0F380008DF81F000398C0F31A
:107EF0008314A200384600F0BBFA09A8009006AB34
:107F000022460FA9284600F0F5F91FE00398840DDA
:107F1000C0F3C2008DF81E000398C0F380008DF8F6
:107F20001F00082C01D2254600E0082533462A46CA
:107F30000FA9384600F09CFA2E44641B09AB06AA30
:107F400029460FA800F014F9002CEAD1384600F0B9
:107F50007EFA15B0F0BD0000084A012902EBC0000E
:107F600005D0022903D0032903D0042903D000201F
:107F7000704700797047407970470000B0AB02004D
:107F800010B5FFF770FF04210348FFF737FF0249E0
:107F90000120487210BD0000DC2A00202DE9FE4FB0
:107FA000FDF73AFD10B10020BDE8FE8F63480021C7
:107FB000C0F81414D0E9014604EA060100EB81017F
:107FC0004FF000090AE000BFC1F3891202EB9151A2
:107FD000641C0C4404EA060100EB8101C9688A07AD
:107FE000F2D000216A46804604EA060008EB8000D1
:107FF000641CC06842F82100491C0229F4D300988F
:1080000000F00300022800981CD0C0F38311062959
:1080100000D3062161F389100090C0F38310801C07
:108020008100474800F0C1F9070075D000F006FA5A
:108030004B4608226946384600F020FA09F1080943
:10804000002557E0810D50228A46B2EB905F00D8A0
:1080500050210D4665F39F5000900831384800F0DC
:10806000A4F9070058D000F0E9F94B460822694608
:10807000384600F003FA04EA0601701A8000001D79
:1080800009F1080B854220D92C4E0C3630B1C2B212
:1080900008EB8101281A91460C3104E03146EAB21E
:1080A000002691463046C5B25B46384600F0E6F9F8
:1080B0000BEB090326B12A463146384600F0DEF9BB
:1080C0000AF1030004EB90041AE008EB81015B461F
:1080D0002A4638460C31F1E704EA060008EB800135
:1080E0004B46042238460C31641C00F0C7F909F1F4
:1080F00004096D1C0098C0F38310A842ECD85FB14E
:108100001048FEF73BFED8F81054464605B140B182
:10811000384600F09CF97460FDF77EFC80F00100A9
:1081200042E7687A012804D12A682846394612684D
:1081300090476D68002DF4D1EAE70000403500203B
:1081400078A302005439002000231A4601F0BABB7C
:1081500008B5012300926A4601F0B4FB08BD1CB5C6
:10816000CDE9002302236A4601F0ACFB1CBD0000F0
:108170002DE9F0470E4680461C46924608293ED817
:1081800094F80C90002020731946104600F0F2FC81
:108190000025B54206D218F805201AA12046FFF79F
:1081A000C3FB03E019A12046FFF7BEFB6D1C082DA1
:1081B000EFD317A12046FFF7B7FB0025B54210D239
:1081C00018F80570FBF706F90068C05D10F03E0F67
:1081D00001D03A4600E02E220EA12046FFF7A4FB74
:1081E00003E00DA12046FFF79FFB6D1C082DE5D392
:1081F00001222146504600F09FFC84F80C90BDE817
:10820000F087000020253032780000002020200078
:108210007C0000002563000020000000114810B51C
:10822000FF218160002101604160C0F81814C0F88E
:10823000141480F81C140C4800F007F900280FD122
:108240000A480B490B4B401AC108002005E000BF4B
:1082500000EB400223F82200401C8842F8D30020A3
:1082600010BD00004035002078A3020008AC0200D9
:10827000B0AB0200402B002002480349401AC0085E
:108280007047000008AC0200B0AB02001FB51146F9
:10829000002443B901A8FEF7FDFC20B90348019969
:1082A00000EBC100847904B0204610BDB0AB0200E1
:1082B00013B56846FEF7EEFC08B100201CBD02486D
:1082C000009950F831001CBDB0AB020070B50848F1
:1082D0000125D0F8104480F81C5405E0657221682F
:1082E0002046496888476468002CF7D170BD0000BB
:1082F000403500202DE9FF4781460C9D00200C46AB
:108300002F7B2873984616462946184600F032FC03
:10831000072E42D2DFE806F004090F161F2A3600A6
:1083200049462846FFF700FB37E0494628462268C1
:10833000FFF7FAFA31E0D4E9002349462846FFF76F
:10834000F3FA2AE0A0680090D4E9002349462846C1
:10835000FFF7EAFA21E0D4E90201CDE90001D4E90E
:10836000002349462846FFF7DFFA16E004F108002B
:1083700007C88DE80700D4E9002349462846FFF7DF
:10838000D3FA0AE004F108000FC88DE80F00D4E921
:10839000002349462846FFF7C7FA002229464046EF
:1083A00000F0CAFB2F73BDE8FF872DE9F041058A75
:1083B00080462D1F4819C01CB0FBF5F0C6B24046E0
:1083C000FEF7E9FC041E19D0002020710120607125
:1083D000E58000272546761EC4F800800BE0404665
:1083E000FEF7D9FC60B16179491C617128600546CE
:1083F0007F1CC0F80080B742F1D32046BDE8F08171
:10840000204600F002F80020F8E72DE9F041457918
:1084100001466B1E002201E00968521C9A42FBD300
:108420000F680146002605E038460C68FEF7D5FCCB
:108430002146761CAE42F7D3BDE8F08108B5012194
:108440006A46001DFAF719FF08BDFEF7DEBC38B515
:108450000446001D01216A46FAF71CFF009810F03F
:10846000FF0F04D12046BDE83840FFF7CEBF38BD2E
:1084700038B501240094FEF7D1FB38BD38B500248F
:108480000094FEF7CBFB38BD20B1034909680160B9
:10849000002070470E207047FCA302002DE9FE4328
:1084A00005460E460846FFF7EFFF00287ED18046BE
:1084B000CDF80080CDF80480012403208DF8005011
:1084C000ADF80400CDF808808DF802406946202000
:1084D000326869DF3F4F40B100F0F4F90246388856
:1084E0003D4904EB0040FFF733FECDF800808DF8E6
:1084F00000408DF80180CDF80480CDF808808DF81B
:10850000028069464020326869DF40B100F0DAF944
:1085100002463888314904EB0040FFF719FECDF8D8
:1085200000808DF80050F720ADF80200CDF80480EF
:10853000CDF8088069462320326869DF40B100F039
:10854000C1F902463888264904EB0040FFF700FED7
:10855000CDF80080CDF80480CDF808808DF800407B
:10856000454669460120326869DF40B100F0AAF94A
:10857000024638881B4904EB0040FFF7E9FD1A4822
:1085800001950295406800906946A120326869DF34
:1085900040B100F097F902463888144904EB0040D6
:1085A000FFF7D6FD00950195029500E010E08DF8EB
:1085B00000506946A020326869DF40B100F082F9BE
:1085C000024638880A4904EB0040FFF7C1FD00204D
:1085D000BDE8FE83AC2B002054AA02009CAA020036
:1085E000E8AA0200B4A90200FCA3020000AA02004B
:1085F00060A902002DE9F0410446076860DF2268A7
:10860000134D0646BA4214D02888022707EB0040D3
:1086100010A1FFF79DFDF806D0F80C01216880023B
:1086200000F10050421A288814A107EB0040FFF720
:108630008FFD56B1304600F045F9024628880121E9
:1086400001EB004017A1FFF783FD3046BDE8F08144
:10865000AC2B002052414D207374617274207368FA
:108660006F756C642062652061646A7573746564FB
:1086700020746F20307825782E00000052414D2064
:1086800073697A652073686F756C64206265206118
:10869000646A757374656420746F20307825782E51
:1086A0000000000073645F626C655F656E61626C00
:1086B0006528292072657475726E65642025732E95
:1086C0000000000030B5EBB04FF4CE75ADF8A85106
:1086D0006AA9684661DF30B1052816D06BB0BDE8E5
:1086E0003040FBF75BBC6C46094967A800F0A2F874
:1086F00007E000BFD0E900212046904767A800F0BE
:10870000B0F869980028E1D0F4E76BB030BD000004
:1087100004A4020010B50E4C2078B8B10120A0705E
:1087200000F0F0FB11280FD0022000F003FC11DF55
:1087300000280AD12070A070162000F061FB0028EC
:1087400003D1032000F0F6FB002010BD082010BD6F
:10875000302B002038B5124C207808B1082038BDE5
:108760000125A570002000F0CDFB112815D00020B8
:1087700000F0E0FB0B480C4900680090684610DFF1
:108780000028ECD12570A0706070162000F058FB16
:108790000028E4D1012000F0CDFB002038BD00000E
:1087A000302B00209CA30200253F02000EB5074994
:1087B000684600F03FF805E0D0E9001088476846B9
:1087C00000F04FF802980028F6D10EBDB8A30200C1
:1087D0000148007870470000302B00200548817860
:1087E00019B1007818B1FFF795BF08207047FFF75F
:1087F000B1BF0000302B00201FB5684648DF30B104
:10880000052814D004B0BDE81040FBF7C7BB0849E9
:1088100001A800F00FF806E0D0E900210098904789
:1088200001A800F01EF803980028E6D0F4E71FBD69
:1088300020A40200016009684160AFF3008010B518
:10884000D0E900215368994201D1002104E0D1E927
:108850000034A34202D01946816010BD0831416046
:10886000F0E7816800290BD0026892680A448260B0
:1088700041684B689A4203D108314160FFF7DFBF7E
:1088800070474058002800D0012070470C4A10B5AE
:1088900002F1F0030EE0991AC91001EBD1714910F1
:1088A00002EBC1010C68844201D90B4602E005D2FB
:1088B00001F108029A42EED3002010BD486810BDB5
:1088C0007CA2020000B5FFF7E1FF002800D10148BB
:1088D00000BD000068A202004058002800D001201E
:1088E000704708B5002242504058009008BDD0F8AB
:1088F0000403084000D0012070474058002800D0F1
:108900000120704708B5002242504058009008BD31
:1089100038B1C16929B1016A19B1406A08B10020B2
:1089200070474FF0FF3070472DE9F0410546007861
:10893000002826D10026144F4FF0010812E0A86845
:10894000805DFBF763FC04000BD0112CF7D0398855
:10895000224608EB01400DA1FFF7FAFB2046FBF78A
:108960001DFB761CA889B042E9D8A989A8680844EB
:1089700010F8010C0D2804D10A20FBF747FC112840
:10898000FAD0BDE8F0810000942B00204661696CAC
:10899000656420726563656976696E67204E55531C
:1089A000206D6573736167652E204572726F72204A
:1089B000307825782E20000010B550B103280CD156
:1089C0000220FCF7B3FE002807D0BDE81040FBF7FB
:1089D000E5BABDE8104000F0DDBE10BD007800280B
:1089E00007D104483B21C08876DF002801D0FBF77F
:1089F000D5BA7047682A00202DE9FC418E8802799B
:108A000000EBC605AC1D2A73C97B012902D00229DF
:108A100004D101E0008800E040882080218860883F
:108A20000127DFF8648081420CD930469EDF0200C6
:108A300025D0112A25D0B8F80000144907EB0040D2
:108A4000FFF786FBA079E179884216D900200090D3
:108A50000190287BADF80000287BADF802000022D1
:108A60006946304690DF030007D0B8F80000324670
:108A700007EB00400649FFF772FBBDE8FC81677118
:108A8000E0E72771DEE70000402B0020C0A40200D1
:108A900090A502007CB506468D88C88806EBC50403
:108AA000A41D172800D217202188814200D808462B
:108AB00060800020207121882846ADDF020007D0A9
:108AC0000E480121008801EB00400D49FFF740FBF3
:108AD0006079002810D1306900280DD00948D0E90C
