:020000040002F8
:1030000060710020153202001D3202001F320200E2
:1030100021320200233202002532020000000000AB
:103020000000000000000000000000002732020045
:1030300029320200000000002B3202002D32020073
:10304000493502002F32020015390200C535020051
:103050002F3202002F320200713302002F320200A1
:103060002F3202002F3202002F3202002F320200D4
:103070002F3202002F3202002F3202002F320200C4
:103080002F320200A13502002F3202002F3202003F
:10309000113602002F320200153602002F320200D4
:1030A0002F3202002F3202002F3202002F32020094
:1030B0002F3202002F32020000000000000000004A
:1030C0002F3202002F3202002F3202002F32020074
:1030D0002F3202002F3202002F32020000000000C7
:1030E00000000000000000000000000000000000E0
:1030F00000000000000000000000000000000000D0
:1031000000000000000000000000000000000000BF
:1031100000000000000000000000000000000000AF
:10312000000000000000000000000000000000009F
:10313000000000000000000000000000000000008F
:10314000000000000000000000000000000000007F
:10315000000000000000000000000000000000006F
:10316000000000000000000000000000000000005F
:10317000000000000000000000000000000000004F
:10318000000000000000000000000000000000003F
:10319000000000000000000000000000000000002F
:1031A000000000000000000000000000000000001F
:1031B000000000000000000000000000000000000F
:1031C00000000000000000000000000000000000FF
:1031D00000000000000000000000000000000000EF
:1031E00000000000000000000000000000000000DF
:1031F00000000000000000000000000000000000CF
:10320000DFF80CD000F0A2F80048004795600200FB
:10321000607100200648804706480047FEE7FEE749
:10322000FEE7FEE7FEE7FEE7FEE7FEE7FEE7FEE776
:1032300019360200013202002DE9F05F0546002038
:1032400092469B4688460646814640241BE0284617
:1032500041464746224600F069F853465A46C01A8E
:10326000914110D311461846224600F050F82D1A0D
:1032700067EB01084F4622460120002100F047F885
:1032800017EB00094E41201EA4F10104DFDC484683
:1032900031462A464346BDE8F09F40EA01039B07BA
:1032A00003D009E008C9121F08C0042AFAD203E0BB
:1032B00011F8013B00F8013B521EF9D27047D2B21F
:1032C00001E000F8012B491EFBD270470022F6E70F
:1032D00010B513460A4604461946FFF7F0FF20468C
:1032E00010BD30B50B46014600202022012409E024
:1032F00021FA02F59D4205D303FA02F5491B04FAAF
:1033000002F52844151EA2F10102F1DC30BD202A8D
:1033100004DB203A00FA02F1002070479140C2F12C
:10332000200320FA03F3194390407047202A04DB5E
:10333000203A21FA02F00021704721FA02F3D0402E
:10334000C2F120029140084319467047064C074DD0
:1033500006E0E06840F0010394E807009847103465
:10336000AC42F6D3FFF750FF3087020050870200CF
:103370002DE9F04700268CB0DFF86091B0464FF49D
:103380008075012437460696284603F0E7FD38B1DC
:10339000D9F80403204203D0284603F0D5FD264384
:1033A0002D1D64007F1CADB2082FEDD34FF4BE7409
:1033B000204603F0D3FD48B1204603F0C5FD46F09A
:1033C000004606AA0121002003F0AAFD444D16F094
:1033D000FF0F15D00127002437420DD009EB8401DF
:1033E000D1F81005D1F81015C0F3042055F82420A9
:1033F000C1F3014102B190477F00641C082CEBD35C
:10340000002E67DA4FF0FF30CDE908800026344601
:10341000281910F8507F90F9000027F0C008401CD0
:1034200044D009A9404603F03BF858B34FEA971936
:10343000404602F04DF855F820701FB1B9F1030F66
:1034400003D00FE0B9F1030F30D108A84FEAD8023A
:1034500008F00703815C4FF0010C0CFA03FC41EA11
:103460000C0181544FF0A04101EB8800D0F8000717
:1034700006A9C0F3014A404603F012F818B1BAF1A8
:10348000020F03D012E0BAF1030F0FD1B9F1030F0D
:1034900008D1BAF1020F1BD00221404603F01DFDF6
:1034A000761CF6B217B149464046B847641C042C56
:1034B000AED3002E0ED06A460121002003F030FD6D
:1034C00006990098884205D00690089809909DE7D3
:1034D0000321E2E70CB0BDE8F08700000060004087
:1034E000F42E002000F01F020121914040098000CD
:1034F00000F1E020C0F88012704700F01F020121A7
:1035000091404009800000F1E020C0F800117047B0
:1035100000F01F02012191404009800000F1E020ED
:10352000C0F8001270474907090E002806DA00F0BB
:103530000F0000F1E02080F8141D704700F1E0203A
:1035400080F80014704700002DE9F0414FF48077B7
:10355000384603F073F80124104EA50748B13846E9
:1035600003F073F80120C5F808037470002002F01E
:1035700025F84FF48277384603F060F800280BD026
:10358000384603F062F80220C5F80803B470BDE8BD
:10359000F041012002F012B8BDE8F081E02E0020D9
:1035A00007480021C0F84011C0F84411C0F8481184
:1035B000C0F84C11C0F80011C0F8041104F090BD1F
:1035C00000100140F8B511480F4D04464FF48C71BE
:1035D00003F007FE002815D00026C4F81861D4F8BF
:1035E00018010090A87F2C46FF2801D003F086FC2C
:1035F00066772672D4E9002101B004F10800BDE825
:10360000F0401047F8BD00006C2F00200030004053
:1036100004F0B4BC03F07ABDF0B5AE480023021D3F
:1036200001780125101D4FF0805406290BD1167822
:10363000360708D10678C6F30316032E06D0042EEB
:1036400004D0052E02D0062907D00EE0B4F824637A
:10365000A14FC6F304263E6002E01678360704D177
:103660000678C6F30316032E02D0062904D00FE015
:103670009B4F9A4E7E670EE01678360708D1067883
:10368000C6F30316032E06D0042E04D0052E02D056
:10369000062907D00EE0D4F84462924FC6F34236B2
:1036A0003E6002E01678360704D10678C6F30316AA
:1036B000032E02D0062906D011E08B4E376827F082
:1036C000807737600EE01678360708D10678C6F3A3
:1036D0000316032E06D0042E04D0052E02D0062990
:1036E0000AD011E04FF08046C6F80C31C6F8103110
:1036F0007C4E361F336002E01678360704D1067818
:10370000C6F30316032E02D0062905D00CE0754F30
:10371000032664373E600AE01678360704D106783F
:10372000C6F30316032E02D006290DD014E06F4F06
:1037300005263E606D4E783635606C4E0836336037
:103740003F263F1D3E6002E01678360704D106781A
:10375000C6F30316052E02D0062957D062E0644E48
:103760003668644F3E60624E361D36683F1D3E60CF
:103770005F4E083636683F1D3E605D4E0C3636683B
:103780003F1D3E605A4E103636683F1D3E60584E13
:10379000143636683F1D3E60554E18363668554F14
:1037A00020373E60524E1C3636683F1D3E60504EFC
:1037B000203636683F1D3E604D4E243636683F1D2C
:1037C0003E604B4E283636683F1D3E60484E2C36D4
:1037D00036683F1D3E60464E30363668454F4037AE
:1037E0003E60434E343636683F1D3E60404E3836AC
:1037F00036683F1D3E603E4E3C3636683F1D3E609B
:103800003B4E403636683F1D3E6002E01678360774
:1038100008D10678C6F30316032E06D0042E04D072
:10382000052E02D0062907D019E0D4F85812324AE2
:1038300001F04F01116002E0117809070FD1007803
:10384000C0F30310032803D0042801D0052806D1B3
:103850002A480168C90702D06FF0010101602248BF
:103860007438016841F470010160BFF34F8FBFF3FA
:103870006F8F4FF01021D1F80002002803DBD1F840
:103880000402002822DA1E4A15601E480468002C33
:10389000FCD01524C1F800420568002DFCD0C1F809
:1038A000044201680029FCD0136001680029FCD0A3
:1038B000BFF34F8F0C48F0380168134A01F4E06100
:1038C00011430160BFF34F8F00BFFDE710490F4860
:1038D0000860F0BDE00F00F0403501400DF0ADBADA
:1038E00000C007403C050040FCED00E010560040E1
:1038F0000404001020C50040E40E00400004004015
:1039000004E5014000E401400400FA050090D00302
:10391000D82A00200448017F04480029024901D028
:1039200004F032BD04F0A1BC4C2F00200020004068
:103930000FB4084B10B504A902AA039800F02EF8A2
:10394000044602A9002000F0D3F8204610BC5DF820
:1039500014FB0000F13A020002E008C8121F08C17F
:10396000002AFAD170477047002001E001C1121F00
:10397000002AFBD1704700000121202803DA814092
:103980000548014003E0402802DA2038814009B1AF
:103990000120704700207047FC06FFBD2DE9FF4F56
:1039A00089B09B460446002506E025280BD05A46E0
:1039B0000B999047641C6D1C20780028F5D10DB040
:1039C0002846BDE8F08F0027B8460122474900E0AD
:1039D000074314F8013F203B02FA03F00842F7D1F5
:1039E00020782E2819D114F8010F47F004072A284F
:1039F0000ED06FF02F022078A0F1300109290CD8E9
:103A000008EB880102EB410100EB0108641CF2E7BE
:103A10000A98641C50F8048B0A9020780028CED0B5
:103A2000642808D0692806D075281ED05A460B99FC
:103A300090476D1C58E00A994FF00A0901C90A9194
:103A4000002802DA40422D2102E0390504D52B215D
:103A50008DF82010012103E0F90704D02021F7E7B9
:103A60008A4608AE0DE00021FAE70A994FF00A09EC
:103A700001C90A91F7E74946FFF733FC303106F8F0
:103A8000011D0028F7D1ADEB060000F120097807F1
:103A900001D44FF00108C84502DDA8EB090000E0A1
:103AA00000208046002706E008A85A46C05D0B9912
:103AB00090476D1C7F1C5745F6DB04E030205A46CA
:103AC0000B9990476D1CB8F10001A8F10108F5DCD5
:103AD00005E016F8010B5A460B9990476D1CB9F199
:103AE0000001A9F10109F4DC641C65E70928010063
:103AF0000A68531C0B601070704710B50122022138
:103B0000002001F053FB08B1072810D10722022141
:103B1000012001F04BFB08B1072808D100210A223F
:103B2000084601F043FB08B1072800D1002010BD72
:103B3000022001F02FBA000070B50024064D06E007
:103B40006868012110F8340002F06EFE641C2878C9
:103B50008442F5D3002070BD942A0020F8B51546A4
:103B60000C460646052A01D20720F8BD02F042FFA6
:103B700018B902F011FF0028F7D1104900204E605B
:103B80000C70C1E902500E4D08610DE006EBC40057
:103B90006968009181788DF801100078094A6946BA
:103BA00002F094FE0028E0D1641EE4B2EED2BDE83B
:103BB000F840054A0021024800F044B8942A002049
:103BC00078860200215E0200B55B020009480068A9
:103BD000C00700D000BEBFF34F8F0648E43801682D
:103BE000054A01F4E06111430160BFF34F8F00BF4C
:103BF000FDE70000F0ED00E00400FA050EB500213D
:103C00000091CDE901106A4644F20100FFF7DEFFA2
:103C10000EBD10B58268C368934203D002F07CF8F1
:103C2000002010BD052010BD10B58268C3689A1A27
:103C300083889A4203D802F079F8002010BD04204E
:103C400010BD0000074B9B7823B12AB120B100685A
:103C5000037C1BB108207047072070474174426104
:103C600000207047B02F002070B503F0E7FB10482C
:103C700000240B21047044700E4D817014206C6080
:103C80002C706C70FFF72EFC07211420FFF74BFC03
:103C90001420FFF732FC0848046007211120FFF7C9
:103CA00042FC0548001F0068A860002070BD0000AD
:103CB000B02F0020A82A0020081501402DE9FC475C
:103CC000DFF8789099F8023073B368B3052902D20F
:103CD0000720BDE8FC87436933B3437C012B25D023
:103CE000002704460025884616468DF80050684691
:103CF00000F056F801A804F0F9FBC8B101210170E9
:103D00000F4944600968C0E90218C0E904769DF8CB
:103D1000040089F801009DF8000000F065F8142007
:103D2000FFF7F6FB2846D4E70820D2E70F46D8E78E
:103D300004259DF8000000F057F8F3E7B02F0020AD
:103D4000041501400649897839B130B1416921B182
:103D500000210174022104F09FB90820704700007F
:103D6000B02F002010B501460B48FFF75DFF04009F
:103D700010D10A4802F0B0FF60B908490648083976
:103D8000FFF747FF30B9054901220839034802F01F
:103D90001DFF0446204610BDCC300020C42A002060
:103DA00030B5EFF3108172B60D4A9468012324B147
:103DB0000370002900D162B630BD93604FF0E0235C
:103DC000D3F88051074C25401560C3F88041D3F8E3
:103DD000844154605A17C3F8842100220270E8E736
:103DE000DC300020FC06FFBD0B498A68002A11D098
:103DF00000280FD1EFF3108072B60B684FF0E0226D
:103E0000C2F800314B68C2F8043100228A600028F1
:103E100000D162B670470000DC3000202DE9FC477D
:103E2000002517880646158090F82D00144689460F
:103E300030B13A462146484600F008FB050009D15A
:103E4000B0784FF00C0A18B32088C846001DB8425D
:103E500002D95046BDE8FC87684679DF0028F9D1D1
:103E60002088032108F8001020881921401C80B206
:103E7000208008F800102088401C80B2208000EBD1
:103E80000801BDF8000004F0F7FA218808442080FA
:103E9000F0780222C8B1218896F9033001F1030CB1
:103EA0004846BC45D5D8425421884FF0010C491CE6
:103EB00089B2218000F801C02188491C89B2218083
:103EC00009F801302088401C20807068B8B1218832
:103ED00090F9003001F1030C4846BC45B9D8425472
:103EE00021880A22491C89B2218042542188491C18
:103EF00089B2218009F801302088401C2080308957
:103F000050B1CDE900474B460622022106F10800D8
:103F100004F004FB05009DD1308A50B1CDE9004783
:103F20004B460722032106F1100004F0F7FA0500C2
:103F300090D1308B50B1CDE900474B46152214216A
:103F400006F1180004F0EAFA050083D1306A30B1B6
:103F50003B462246494601F0C3FD0500DBD1706AAD
:103F600030B13B462246494602F094F90500D2D1D1
:103F700096F82C0038B13B4622464946304603F0BD
:103F800011FC0500C7D1307838B13B46224649467E
:103F9000304602F037FA0500BDD128465AE7F0B5A1
:103FA0000C4693B01F210726ADF80010ADF80410A1
:103FB000002750B1C17849070DD56A4602A9FFF71D
:103FC0002DFF002808D102AD02E00025ADF80070F9
:103FD0006CB1E07810B1304613B0F0BD01AA0AA967
:103FE0002046FFF71BFF0028F6D10AAA02E00022B4
:103FF000ADF80470BDF80400C3B2BDF80000C1B252
:10400000284672DFE8E780F82410704770B50D008D
:10401000044653D0F4B3012020700026E67020221D
:1040200005F17801201DFFF738F984F82460D5F8F0
:104030009800C4F8CC00D5F89C00C4F8D0004FF626
:10404000FF70A4F8C800C4F82560A4F8296084F8BB
:104050002B6004F130003C210646FFF737F9287841
:1040600084F83000A87884F83200E87884F83300C7
:10407000687884F83100D5E90401C4E91001D5E974
:104080000201C4E90E01D5E90601C4E9120195F85F
:104090002D0000E012E084F85D00686AD8B104F1F8
:1040A000780104F16C0061676065696A09880180C4
:1040B000686A616D80888880002008E00E2070BDED
:1040C000696A22188968095C82F87810401C616D61
:1040D00089888142F4D8A86AE8B104F1A400C4F840
:1040E000A0000C38A065A96A89888180A86AA16DA2
:1040F00000880880002006E0A96A22188968095C07
:1041000082F8A410401CA16D89888142F4D895F8EA
:104110002C0084F85C00286A48B104F1C4002065D2
:10412000296A49884180286A216D0088088068686A
:1041300000B1606305F13C013046BDE87040FFF717
:104140002EBF10B50288102A1AD0112A1FD01B2AA0
:104150001CD1007A0C46002818D1E0780521401CBB
:10416000B0FBF1F201FB1201204600F055F80028E7
:104170000CD0D4F8D010002908D0BDE81040084772
:10418000C27B012A02D18088A1F8C80010BD0C466C
:10419000002184F8D4108088B4F8C8108842F5D182
:1041A00020790028F2D10121DEE710B50C46022863
:1041B00001D0032811D1607800280ED00020607053
:1041C000E178204600F028F8002806D0D4F8D01076
:1041D000002902D0BDE81040084710BD10B50446C4
:1041E00074DF012084F8D400002084F8D600062073
:1041F00084F83300002104F13000FFF7D0FE0028DE
:1042000009D1E178204600F007F818B1D4F8D010B1
:1042100001B18847002010BD2DE9FF470446007812
:104220000F4638B1E770002002F062FD012628B188
:104230006670D2E0082004B0BDE8F0870025C4F81D
:104240002550A4F8295084F82B50A07910B1E078BB
:10425000012806D0E07970B1E078012801D0022869
:1042600009D1D4F8CC1021B184F82C6008208847FB
:1042700001E084F82C5004F1260100200A5C0AB108
:10428000304603E0401C0628F8D300204FF0020817
:104290004FF0030A4FF00409012F06D0022F09D076
:1042A000032F0CD0042F12D10DE0A17911B108B168
:1042B00030460DE0E17911B108B1404608E0207ABE
:1042C00008B1504604E0607A08B1484600E028464C
:1042D000E070D4F8CC1041B1032801D0042804D1F7
:1042E000607910B194F8D400A8B184F8D550009545
:1042F0000295019503958DF800508DF80850E178EE
:1043000004F1250004F13002052958D2DFE801F05C
:10431000670A131F3B0084F8D65084F8D560072045
:104320008847E4E7A67001908DF80060ADF80C5066
:10433000ADF80A5043E084F8028001908DF80060E7
:10434000208AADF80C00A089ADF80A0037E0A08AF9
:10435000ADF80A00208BADF80C00607980B194F8BC
:10436000D40068B994F8D60050B18DF8088084F86C
:10437000339000211046FFF712FE00BB05211AE022
:1043800084F802A01BE0A08BADF80A00208CADF8E9
:104390000C00607988B194F8D40070B994F8D60014
:1043A00058B18DF8088084F8339000211046FFF74B
:1043B000F6FD20B90621A17001E084F80290E078B2
:1043C00030B194F82410684673DF00287FF433AFCF
:1043D000D4F8CC1009B1A078884700202BE7A5704D
:1043E000F6E7000070B5040012D001461C22144804
:1043F000FEF753FF1248134D0560206850B17ADF75
:10440000002806D12068016829604068686005E0DE
:104410000E2070BD0B487BDF0028FAD108484FF60C
:10442000FF711438084A20F8041B0549343901602B
:104430000021FFF707FC0028EBD0032070BD00002F
:104440000C2E00208C2A0020858402007CB50546B5
:1044500008880C460930904201D90C207CBD684682
:104460006DDF0028FAD121880820685420881B219C
:10447000401C80B2208029542088401C80B22080BB
:104480002844DDF801100160BDF805108180208806
:10449000801D80B220809DF80010490800D00121C5
:1044A00029542088401C208000207CBD70B53F4DE1
:1044B000044600880021AE8888B0232839D017DC54
:1044C000112821D00BDC01284CD0102825D1072041
:1044D00000F08EFE08B1FFF791FBA0881CE01328C6
:1044E00021D0212819D10091A08869468FDF26E0CC
:1044F0003B2833D0512839D0522823D056280CD10C
:10450000A088132176DF22E0002000F071FE08B1C0
:10451000FFF774FB4FF6FF70A88008B070BD00BFB6
:10452000FFF76CFBF9E700231A46852130467FDF51
:104530000DE000910191A0880022694690DF0028DB
:10454000EED1EAE700231A4619463046A9DF0028D3
:10455000E3D008B0BDE87040FFF750BBA08813213E
:1045600076DFF4E7A088002166DFF0E71022A11DC6
:1045700004A8FEF792FE9DF810100029CDD09DF8FA
:104580001800042803D0062801D00528C5D1022927
:104590000AD001208DF800004FF4C170ADF804007E
:1045A000A0886946A8DFCAE70220F3E7682A00204E
:1045B00010B51A4C0188606810290ED011292BD132
:1045C000401E606028D1FFF798FA002824D02168A7
:1045D000002921D0BDE810400847D0B900210122B0
:1045E000084600F0E3FD08B107280FD10722022199
:1045F000012000F0DBFD08B1072807D104220221C9
:10460000002000F0D3FD20B1072802D0216801B1BD
:1046100088476068401C606010BD0000842A00204C
:104620002DE9F04701883B4E40F2F3194FF6FF7534
:1046300010291BD011293ED0122954D0502946D11F
:10464000C188F289841D914241D1618902293ED1FC
:104650008688304601F010FC050038D004F10C00CB
:1046600000F07EF9A8B3294630464EE0C17B87882A
:10467000044601292BD1A846284601F0FDFB050080
:1046800017D02F8000202872234843464A460168ED
:10469000C5F80A104068C5F80E0004F1100105F1D4
:1046A0000A0001F017FC6872F08900280FD1294632
:1046B0002AE0042013E0808801F0DEFB040006D02D
:1046C0006068FFF73FFB08B103F064F82580BDE8A0
:1046D000F087FFE76868FFF735FB0028F7D0BDE8F3
:1046E000F04703F057B887880646384601F0C4FB08
:1046F0000400ECD02B464A4606F1080104F10A00FA
:1047000001F0E8FB607221463846BDE8F04701F051
:104710002DBA00000C2E00208C2A00202DE9F04735
:10472000044603883F480122A4B000F1480A102B38
:1047300009D0112B54D01A2B70D1217AB2EB111F52
:1047400053D2012352E0D0E911218A430546011DCD
:1047500012A802F0F2FF442212A901A8FEF79DFD63
:10476000DFF8C0900026374609F144090DF104082E
:104770000AE000BF08EB46001D2283884946281D39
:10478000009702F09FFF761C0198B042F2D8686C47
:10479000A688C04302F0B8FFA0F57F41FF3917D0CB
:1047A00005EB40000123868032465146281D02F069
:1047B000E9FF012332464946281D02F0E3FFE07B72
:1047C00002280BD000231749A2884C31281D20E075
:1047D00024B00420BDE8F047FFF710BA0123F2E748
:1047E0000023A2885146001D13E000230D49054611
:1047F000A2885031001D02F0C5FF207A0221B1EBE2
:10480000101F01D2012300E000230649A288543181
:10481000281D24B0BDE8F04702F0B4BF24B0BDE8C5
:10482000F0870000282E002030B5174B0D460400FD
:104830000FCB85B08DE80F0023D015B34FF6FF7076
:10484000A0822868A0610020A0752146684662DF2A
:10485000002814D120788DF812000120ADF8100046
:10486000A21C04A9A0DF002809D12946204602F095
:104870001CFE002803D12946204603F07BFC05B02E
:1048800030BD0E20FBE70000648602007FB50029E2
:1048900017D0002815D00288102A0DD0112A0DD06B
:1048A000502A0FD0572A0CD11A4B1868D3E902238B
:1048B0008DE80F0089692AE0808801E04FF6FF70DB
:1048C00088827FBD01910C46821DC388098900251D
:1048D00012308B4202D1518902290CD0A1898B421E
:1048E000EFD1A1690029ECD002905089ADF80C00FD
:1048F0008DF800500AE000F033F818B10120A075DF
:10490000022001E0A57503208DF80000A16968462A
:1049100088477FBD548602001FB560B1838AA3F526
:104920007F44FF3C09D0837D3BB11388F42B06D92B
:10493000072004B010BD0E20FBE70820F9E7002394
:1049400000930193029303938388CDE90221ADF88C
:10495000003001218DF80210808A6946A6DFE8E761
:10496000007800F00100704770B51C0005D0E569C3
:104970001DB1A378012B03D004E04FF0FF350EE00A
:1049800040F08000134666780A4601463046A84744
:104990000546616A012088470DB16FF00105284680
:1049A00070BD1CB5044602F03DFC002817D1A0786C
:1049B000012807D12346012201A97F20FFF7D4FF58
:1049C00000280CD12346012269460020FFF7CCFFC6
:1049D00018B99DF80000D12802D06FF002001CBD6C
:1049E0002070FF20E070204600F028FA1CBD000077
:1049F000064800214170012181700549C1610549C6
:104A0000016205494162FFF7CCBF0000E02C0020A5
:104A1000AD4E0200054F02005B6602003EB5154830
:104A20000C210224417103218171C4711121017192
:104A300000F068F901258DF800508DF80140BDF8AF
:104A400002000C4920F4F97040F00D00ADF80200AE
:104A5000BDF8040020F0C000403040F00100ADF887
:104A60000400684600F008F80249284600F0BEF944
:104A70003EBD0000E02C0020F8B506460D460020A3
:104A80007178441E07460D291CD2DFE801F0071C8F
:104A90002E2828343A4640224C6F8400284602F0E3
:104AA000C1FB70B96EB1341D2946204601F0D2F821
:104AB000002807D12A4621463046BDE8F84000F0DC
:104AC000E7BD2046F8BD29463046BDE8F84003F072
:104AD000A3B829463046BDE8F84002F0FCBF29469D
:104AE0003046BDE8F84003F037B929463046BDE806
:104AF000F84003F0F4B829463046BDE8F84003F02A
:104B00004FB829463046BDE8F84002F08FBE29462E
:104B10003046BDE8F84002F063BF29463046BDE8A4
:104B2000F84002F0E1BE284602F07CFB0028C8D124
:104B3000002EC6D08DF800702B4601226946512008
:104B4000FFF712FF20B99DF8000040F010003AE096
:104B50000028B7D12946304603F06AF90028B1D1C0
:104B600029463046BDE8F84001F004BC002DA8D02D
:104B7000686A0028A5D08DF800702B46012269468E
:104B80005120FFF7F1FE0028E2D1317A9DF80000B4
:104B900061F3451017E0002D93D0686A002890D08B
:104BA0008DF800702B46012269465120FFF7DCFE8C
:104BB0000028CDD19DF80000317A20F04000C1F3EB
:104BC000400140EA81108DF800002B460122694621
:104BD000512000F058F8BBE7F8B5040015D0606A22
:104BE00098B100208DF8000020796FF00305A0F146
:104BF0001001022928D8217A88421AD02146684615
:104C000002F0A8FB060003D011E04FF0FF30F8BD22
:104C100023460122211D7E2000F035F80646207A29
:104C2000102802D1616A052088472179217230005D
:104C3000EDD1207B0026142808D0152806D017288F
:104C400004D02E463046F8BD2846F8BD217C884267
:104C5000F8D02346012204F10C017E2000F013F865
:104C60000646207C142802D0172803D008E05120E3
:104C7000616A04E0207B152802D1616A0A20884716
:104C8000207B2074DEE72DE9F0474FF000061C0082
:104C9000054690468946374608D0D4F820C0BCF176
:104CA000000F03D0A078012803D004E04FF0FF36B6
:104CB00025E005F07F05207A112802D0207C1528F8
:104CC00018D113460A4660782946E0470646616ACD
:104CD0000120884710E0266A09EB0702607801236B
:104CE0002946B0476D1C0646616AEDB2012088472F
:104CF0007F1CFFB24745EED30EB16FF00106304680
:104D0000BDE8F08738B5040063D0606A002860D041
:104D1000002521466846009500F0E2FB002857D1A7
:104D20002346012269464020FFF7ADFF00284FD1FE
:104D300061796172E179E172616A012088472346F5
:104D4000012241200DF10101FFF79DFF00283FD115
:104D5000A179A17221466846009500F0F7FB002872
:104D600036D12346012269464220FFF78CFF0028F6
:104D70002ED1617B6174E17BE174616A0120884717
:104D80002346012243200DF10101FFF77CFF00289B
:104D90001ED1A17B2046A174FFF71EFF002817D16A
:104DA00023468DF80050012269460220FFF7DCFD02
:104DB0009DF80010C1F343018DF8001001290BD0BC
:104DC00002290CD003290DD0072901D16FF008006A
:104DD00038BD4FF0FF3038BD6FF0050038BD6FF0C3
:104DE000060038BD6FF0070038BD000038B5044636
:104DF00000208DF800000D46084602F013FA10B1AD
:104E00004FF0FF3038BD2B46012269467B20FFF76B
:104E1000ABFD0028F6D19DF80000012C0BD020F04E
:104E2000080000BF8DF800002B46012269467B2058
:104E3000FFF729FF38BD40F00800F3E738B504005C
:104E40004FF0B6008DF800000DD0606A58B12346CF
:104E5000012269467E20FFF716FF0546616A0F2092
:104E600088471DB11FE04FF0FF351CE0A0780128F6
:104E700007D12346012269467F20FFF775FD050013
:104E800011D10220E07108216171102222710322E8
:104E9000A271E0736173142020730020A073606816
:104EA000A060E0682061284638BD00002DE9FC4183
:104EB000114F00201C4616467870054641F08000D0
:104EC0008DF80400601CC0B200900C4B012201A9B7
:104ED0000B4801F03DFE78780028FCD000210748FF
:104EE00004E0421852787254491CC9B2A142F8D366
:104EF0002846BDE8FC810000682A0020082D00201B
:104F0000F08502002DE9F84F154F4FF000081C46C0
:104F10009246894687F801804646581C01F084F97C
:104F200009F07F0105460170002005E01AF8001025
:104F30002A18401C517080B2A042F7D3641CE2B220
:104F4000002329460748CDF8008001F001FE78785B
:104F50000028FCD0284600F0F3FE3046BDE8F88F6C
:104F6000682A0020F08502000149085C70470000B3
:104F70000C8602000649095C4FF0A040D0F81005ED
:104F8000C84010F0010000D0012080F001007047FF
:104F90000C86020007490B5C4FF0A041D1F80425B4
:104FA0000120984020EA0203C1F808351040C1F8FA
:104FB0000C057047088602000249085C012101F0D7
:104FC000A4BF0000088602000249085C002101F02D
:104FD0009CBF0000088602000649095C4FF0A04013
:104FE000D0F80405C84010F0010000D0012080F086
:104FF00001007047088602007CB50024084E254653
:105000000122305D009500231146019501F014FF47
:10501000641C042CF4D3BDE87C4000F003B800000D
:105020000886020010B500242046FFF7C5FF641C67
:10503000042CF9D310BD10B500242046FFF7C4FF9F
:10504000641C042CF9D310BD10B50246064B4FF07A
:10505000FF3000215C5C944201D1084610BD491C20
:105060000429F7D310BD00000C86020070B50C4E69
:105070000C004FF0000530600BD0012000F06AF802
:1050800008B1022004E0002000F064F800B10B2019
:105090002070706810B9FEF730FD0546284670BDD7
:1050A000842A002010B5002000F0D4F908B10628A9
:1050B00006D1012000F0CEF908B1062800D1002069
:1050C00010BD00002DE9F0470D468146FFF7BCFFFB
:1050D0000446042836D2DFF874801B481C4EA8F121
:1050E0000C0725B3012D0ED0022D2BD104EB44006B
:1050F00030444578002D25D0B968002922D02846B3
:10510000BDE8F047084704EB4401755C0E44717834
:1051100049B10E4A4FF40041093A8068FEF7CEFDCE
:1051200008B987F80390B17808F80410E2E78068BE
:10513000FEF708FE04EB4401314418F804008D78B2
:10514000A842D7D0BDE8F08710860200802A002050
:10515000AC2D0020FFF70EBF124910B5024688881B
:10516000042A0CD0072A13D00A2A04D0102A01D10D
:105170000020488010BDBDE8104002F067BE13213A
:1051800076DF0CE00028F5D0BDE81040FEF736BD14
:10519000A0F57F41FF39EDD10348FFF71FF808283C
:1051A000F0D110BD682A0020082C002070B5002323
:1051B000042810D20D4D00EB4004012A02D1012930
:1051C0000CD00022094E00EB4000304461B10129AF
:1051D00006D0022906D00723184670BD0E30C2B291
:1051E0002A55F9E74270F7E78270F5E7AC2D002009
:1051F000044A014600201279D20702D0084600F086
:105200004DB87047742A002070B506461E48002429
:10521000C0E90161B00720D50025012211462846CA
:10522000FFF7C4FF6D1C0446042D02D2002CF4D0FD
:1052300013E094B940F2666204211448FEF78EFC34
:1052400004000AD1FEF778FC040006D10F48104A8A
:105250000021001FFEF7F6FC0446F00701D0FFF71F
:10526000CBFE74B909480B4A00210C38FEF7EAFC62
:10527000040006D10548084A01210838FEF7E2FC7F
:105280000446204670BD0000742A00201C860200DF
:1052900065540200495F0200313B02002DE9F05FD6
:1052A0006A4C054600266078B34618B184F801B010
:1052B00000F032FE664F4FF47A694FF4C87A4FF02F
:1052C0000108182D62D2DFE805F0AC0C0C31404D1E
:1052D00062676B746B74BE7D7D7D7D7DACAFB2B556
:1052E000BEBE0020FFF778FE00284FF0000008D077
:1052F000FFF762FE022D02D14FF4E16008E048465C
:1053000006E0FFF761FE022D01D1C82000E0504603
:10531000410CC0034FF4FA72801841F1000125706E
:1053200052000023FDF788FF01462AE00020FFF726
:1053300053FE00284FF0000004D0FFF73DFE4FF46D
:105340004870E5E7FFF740FEDFE70020FFF744FE87
:1053500000284FF0000002D0FFF72EFECFE7FFF746
:1053600033FED4E70020FFF737FE00284FF000009F
:1053700002D0FFF721FE01E0FFF726FE257041F67F
:105380009A1100223868FEF799FC064646E0002094
:10539000FFF700FE257008E0002051E025703DE099
:1053A00084F801800120FFF7F5FD002240F6CD4191
:1053B000E8E784F801800120FFF7ECFD00224FF4BC
:1053C0008041DFE77868FEF7BDFC0646D5F11100A5
:1053D00000D02EB10220FFF7EFFD84F802B01DE0EF
:1053E000012816D980B2C8214843C117C90341EA30
:1053F0005041C0034FF4FA72801841F1000152008D
:105400000023FDF719FF014600227868FEF756FCDD
:1054100006460220FFF7D8FD84F802803046BDE83A
:10542000F09F00F079FDB9E700F076FDB4E700F0F9
:1054300073FD04E000F070FD0020FFF7C5FD0120C2
:10544000FFF7C2FDAAE7FFF7F6FDA7E7742A0020E1
:105450001086020010B5FFF787FD032101F02CFD37
:10546000002010BD00780221FFF72CBE05494FF047
:10547000FF32082841F8202002D3084480F8482051
:1054800070470000F42E0020F0B54FF0FF3512B148
:105490000023082601E008230C260C4C05E000BF81
:1054A00054F823707F1C04D05B1CB342F8D3284609
:1054B000F0BD26185DB286F8305044F82310002A5B
:1054C000F5D1E11881F84800F1E70000F42E002042
:1054D0000249084490F9300070470000F42E002083
:1054E00070B50D460B460446014602224020FFF7E8
:1054F0003BFA002829D16979001F0F2925D86A7A3B
:10550000914206D0227801F00F0122F00F021143E0
:105510002170E979022918D8EA7A914203D02178DA
:1055200021F070012170A9790022641C0C290AD88D
:10553000A87A814208D0207801F00F0120F00F00F6
:105540000143217000E00246104670BD70B50D4663
:105550000B460446014602224220FFF705FA0028C6
:105560002AD1697B001F0D2926D86A7C914206D07A
:10557000227801F00F0122F00F0211432170E97B24
:10558000022919D82278302322F0300203EA0111CF
:10559000114304F8011BA97B002204290AD8A87C26
:1055A000814208D0207801F0070120F00700014374
:1055B000217000E00246104670BD000070B5084C36
:1055C000050009D010342168002907D00868206040
:1055D000496828468847F6E70834F4E770BD0000BC
:1055E000E02E00202DE9F05F26484168F1B3DFF896
:1055F00098B00E688146DBF8004087688078E11B30
:1056000021F07F45ED1CB0B9DFF880804FF4803089
:10561000C8F84403C8F804031120FDF763FF112004
:10562000FDF76BFF4FF0010AC8F800A02F2001F032
:105630005FF889F802A0B54200D23546124BE8194E
:105640003C3320F07F401860DBF800105A46091BFD
:1056500021F07F41001B20F07F40C91C81420FD9FF
:10566000106818602F2001F043F800E004E0BDE866
:10567000F05F1120FDF74CBFBDE8F05F01F0DEBE2A
:10568000BDE8F09FA82A0020041501400010014049
:105690002DE9FC410E4614460746114602F0C8FBB0
:1056A000002857D100258DF8005023460122694675
:1056B0006220FFF759F970B99DF8000010F0020F51
:1056C0000BD020F002008DF800002346012269462D
:1056D0006220FFF7D8FA00283CD12146384600F076
:1056E0000BFE002836D18DF8005023460122694672
:1056F0005920FFF739F978B99DF80000317820F08A
:105700008000890940EAC1108DF80000234601227B
:1057100069465920FFF7B7FA00281BD18DF80050D1
:105720002346012269465F200195FFF71DF90028F5
:1057300010D19DF80000234620F003008DF80000F2
:105740008DF8040070788DF80500022201A95F2011
:10575000FFF799FABDE8FC81F8B5054600200E4632
:105760008DF800000B46012269465420FFF7FCF833
:1057700000281DD12878AC1C01289DF8000018D005
:10578000217820F02000C1F3001140EA411000BF51
:105790008DF80000218800F0F000C1F343110143AF
:1057A0008DF800103346012269465420FFF76BFA4A
:1057B000F8BD217820F01000C1F3001140EA01107B
:1057C000E6E7000038B5044600200D468DF80000DD
:1057D0000B46012269465320FFF7C6F8002825D161
:1057E0002178A01C01299DF8001020D0007821F01C
:1057F000800141EAC01121F04001C0F3400241EABA
:105800008211C0F3800221F0200141EA421121F00F
:105810001001C0F3C00041EA001000BF8DF8000085
:105820002B46012269465320FFF72DFA38BD007838
:1058300021F0080100F0010241EAC20121F0040157
:10584000C0F3400241EA8201C0F3800221F002016C
:1058500041EA420121F00101C0F3C0000843DDE745
:105860007CB5044600200D468DF800005F260B46EF
:105870000190012269463046FFF776F800282ED1C4
:105880009DF80000218820F0FC00C90840EA810052
:105890008DF800002B46012269463046FFF7F3F9E8
:1058A00000281CD162202B4601226946FFF75CF8D4
:1058B000002814D19DF80000218820F00100C1F3D8
:1058C000402108438DF800008DF80500A0788DF880
:1058D000040061202B46022201A9FFF7D4F97CBD08
:1058E00038B5044600200D460B460090022269465A
:1058F0006520FFF739F800282FD19DF800002B46CE
:1059000020F00302207800F003011143C0F381026C
:1059100021F00C0141EA820121F0F001000941EA85
:1059200000108DF800009DF8010020F03F02208853
:10593000C0F305211143C0F3803221F0400141EA58
:10594000821121F08001C00B41EAC0108DF80100E6
:10595000022269466520FFF796F938BD38B504463E
:1059600040780D468DF800000B4601226946602004
:10597000FFF789F900282AD12B46012269466220C7
:10598000FEF7F2FF002822D19DF80000217820F0D8
:105990000C0001F0030140EA81008DF8000021783D
:1059A00020F03000C1F3810140EA01108DF80000C1
:1059B000217820F00200C1F3401140EA41008DF847
:1059C00000002B46012269466220FFF75CF938BDD2
:1059D00038B50D46002104460091008810F0C00F34
:1059E00008D0C0F38110012809D002280BD0032869
:1059F00010D033E015208DF80000032007E02D20A3
:105A00008DF8000028E01D208DF8000007208DF89B
:105A1000010023E02B46022269467A20FEF7A4FF0C
:105A2000E0B99DF80000217820F01800C1F3410191
:105A300040EAC1008DF80000217820F00700C1F392
:105A4000C20101438DF800109DF80100218820F06B
:105A50000700C1F3022101438DF801102B460222F9
:105A600069467A20FFF70FF938BDF8B507460020E0
:105A70000E46154613460090022269466320FEF743
:105A800073FF00282BD178789DF80040032806D1B9
:105A9000308824F00701C0F3C21040EA01043178D5
:105AA0004023C1F3401003EA801024F04002104369
:105AB000890920F0800242EAC1108DF800009DF8AB
:105AC0000110307821F01F0100F01F0008438DF80D
:105AD000010002222B4669466320FFF7D4F8F8BD87
:105AE0002DE9F04117880646B81D14460D46984228
:105AF00002D90C20BDE8F0813188072206290AD39B
:105B00004FF4486C4FF6FF73614501D9994202D1B9
:105B10007088062801D21046ECE7604501D998420A
:105B2000F9D1994203D0984201D08142F3D805209F
:105B3000E85520881221401C80B2208029542088FA
:105B4000401C80B220804119308802F095FC2188E9
:105B5000084480B220804119708802F08DFC2188B1
:105B6000084420800020C5E7FEF748B838B54A7AD7
:105B70000F4B62B100220A725969002906D0012236
:105B80008DF80020ADF802006846884738BD0A7AD3
:105B900062B19B684C68024619462046FEF78EF8B3
:105BA0000028F3D0BDE8384001F0F4BD5B68F1E7B0
:105BB0000C2E00202DE9F04100260125144C22E096
:105BC0006068226900EBC607387805FA00F11142D7
:105BD00017D08A43226100F0D5FE02463878E36888
:105BE00005FA00F1194002FA00F3994209D17978D7
:105BF000012901D0012100E0002151407A6802B161
:105C00009047761CF6B220788642D9D3BDE8F08161
:105C1000942A00200E4910B50A784C780023A2423D
:105C200012D0521CD2B20A70022A00D10B70084A5C
:105C30000B780C3252F8232002608868104420F060
:105C40007F408860012010BD0360002010BD00006F
:105C5000A82A0020F8B504460D4600260B468DF80C
:105C60000060012269465020FEF77EFE00282BD1FD
:105C70002178C8079DF800001AD020F00100C1F378
:105C8000400101438DF8001021F002002178C1F39A
:105C9000800140EA41008DF80000217820F00400E6
:105CA000C1F3C00140EA81008DF80000EE7005E00C
:105CB00020F007008DF80000FF20E8702B4601223D
:105CC00069465020FEF7DFFFF8BD30B50446006896
:105CD00085B00D46806800281CD014216846FDF769
:105CE000F5FA0195A0680490207910B101280DD132
:105CF00004E001208DF80000206904E002208DF806
:105D00000000E068000302906069039020688168E9
:105D10006846884705B030BD826883881A400368AA
:105D20009A5C0A708168491C81607047C2688388E8
:105D30001A4003689954C168491CC160704700004B
:105D400010B5002821D0114B0022001F196803E074
:105D5000814203D80A4649680029F9D152B1136833
:105D6000841A9C4204D1006818441060104602E076
:105D7000506000E0186039B102680B1A934203D1F9
:105D80000B681A4402604968416010BDDC2A00209B
:105D900006484A8883889A4207D10A88A2F5206378
:105DA000773B02D18988C91EC1807047682A0020CC
:105DB00010B50949094800F087FB08B1FDF71EFF3F
:105DC0004021064800F074FB002803D0BDE81040D5
:105DD000FDF714BF10BD0000915D0200F42B002000
:105DE00038B500F007FE08B900F0D6FD0A480B4AA6
:105DF00069460068009000208DF801000B2000F03B
:105E000065FD041E01D0FDF7F9FE01210B2000F015
:105E10000BFD204638BD0000EC8502008D5E0200BF
:105E20002DE9F041124E07460125BD403068FDF7CF
:105E300089FF00280DD10F4C2069284207D1384630
:105E400000F0A0FD0028E06805D0284304E0A84346
:105E50002061BDE8F081A843E0602069284320610B
:105E6000A1683068BDE8F0410022FDF727BF0000BF
:105E700078860200942A00200146034802888A425C
:105E800000D0002070470000F82D00203EB50E4CD9
:105E90000EA16088401C82B262806846FDF748FD12
:105EA000608800F0A3FAADF8080002AA6946084825
:105EB000FEF732FD80B2082805D0112803D0002853
:105EC00001D0FDF79BFE3EBD682A0020257500002D
:105ED000D82B0020F0B58488A518944200D822461B
:105EE000A41AC288D6189A4200D81346D21A4B88F0
:105EF0000788BB420CD34088834209D88888A042D7
:105F000006D3A84204D8C888904201D3B04201D930
:105F10000020F0BD0120F0BD0A4810B5807860B1C6
:105F2000002401E0022C06D02046FFF745F8641C4F
:105F3000042CF7D310BD0324F6E7BDE81040FFF7AB
:105F400071B80000742A002003480179C90702D003
:105F50000078FFF7A3B97047742A00200649012092
:105F6000086006480168C1F300410029FAD10449DC
:105F700000208870704700000C00004018040040AA
:105F8000E02E0020F72101801721418000210171BE
:105F90004171FB2181711B21C17170472DE9F047CF
:105FA000394E002780463D46DFF8E090D6F804A041
:105FB00057E003D00446D0F81C8035E099F8002063
:105FC00002EB4201521CD2B289F8002009EBC10158
:105FD00099F80230091D9A4201D189F800504868A9
:105FE0000A780446012A12D0022A02D0032A3BD1A1
:105FF00008E002F021F800B10127257434E00574AF
:10600000C06900E070680028F9D170602CE0207C45
:1060100050BB88686060C868A0600869E060486933
:10602000A061F07800B165606268B168184B501AE1
:1060300020F07F40984202D2A168084406E0881A06
:10604000A16820F07F40814202D9081A206000E058
:10605000256065600120A56020742046E56101F09F
:10606000CDFFB8F10000A4D199F8001099F8010013
:106070008142A3D117B97168514502D00120BDE812
:10608000F0870020FBE70000A82A0020B02F0020A6
:10609000FFFF7F00A8B0FDF7E7FD58490320FFF799
:1060A000B3F808B1FDF7AAFD69460020FEF7DEFF50
:1060B00008B1FDF7A3FD00F0FDFF08B1FDF79EFD5F
:1060C000FDF7D2FD08B1FDF799FD002469460120D6
:1060D000009400F055FF08B1FDF790FD684600F010
:1060E0009FFF08B1FDF78AFD9DF8080044A120F04C
:1060F0000F00401C20F0F00010308DF808000C223A
:1061000002A87CDF08B1FDF779FD00941020ADF8FE
:1061100000003C200194ADF80200ADF804404FF4BB
:10612000C870ADF8060068467ADF08B1FDF766FD75
:10613000FFF73EFE3648009069463648FEF774FB8E
:1061400008B1FDF75BFDA0216846FDF7BFF802200E
:106150008DF800008DF8024005208DF80300012025
:10616000ADF84C008DF87C004FF496702A492290CF
:1061700014914FF461702390284826902548694671
:106180003030FDF743FF08B1FDF738FD214801210C
:106190003030FDF738FF1C216846FDF797F84FF4C3
:1061A0002030CDE900404FF47020029003208DF89C
:1061B0000C001B4805901B480690ADF80E408DF86A
:1061C00010406846FEF70EF908B1FDF717FDFFF71E
:1061D00007FE08B1FDF712FD01F052FEFEF708FCC4
:1061E000FEF71CFC0B4803213030FEF715F800E0E9
:1061F0003EDF0028FCD0FDF701FDF9E75951020010
:10620000537465705F636F756E7465720000000093
:106210003D720200D82B0020702A00207F720200FD
:10622000A5720200695B0200F0B50B30154D20F03D
:1062300007010024144A0FE003688B420BD38B4202
:1062400005D95E1A43184768C3E9006700E0436850
:10625000136002C004E0021D10680028ECD1204643
:10626000002802D1286808B10020F0BD064A07487E
:106270001060074A121A22F00702C0E90024012028
:106280002860D7E7E02A0020DC2A002064310020C3
:106290006051002070B5144682880E46054620885D
:1062A000111D0144921C994201D8FE2A01D90C20EB
:1062B00070BD521C32542088FF21401C80B22080C7
:1062C00031542088401C80B220808119288802F037
:1062D000D3F82188084480B22080AA8842B1A968F6
:1062E00041B13044FCF7D9FF2088A98808442080B8
:1062F000002070BD072070BDF8B5054600200E4691
:106300000B460090032269465520FEF72DFB00281E
:1063100012D1687816499DF800409DF80220085C6B
:106320002B788443824343B1012B09D0022B09D03F
:10633000032B0DD06FF00300F8BD8DF800400DE089
:106340000443FAE702438DF802208DF8004007E08D
:1063500004438DF800406878085C02438DF8022001
:106360003346032269465520FEF78DFCF8BD000038
:1063700020870200F8B5054600200E468DF8000083
:106380000B46012269465620FEF7EEFA002811D18D
:1063900069781548425C9DF80000904320EA021499
:1063A000287840B1012809D002280CD003280ED04B
:1063B0006FF00300F8BD8DF800400EE044EA0210D3
:1063C0008DF8000009E022438DF8002005E042EA44
:1063D000040040EA02118DF800103346012269469C
:1063E0005620FEF750FCF8BD2087020000210A224B
:1063F00004E000BFB0FBF2F0491C89B20028F9D1DB
:1064000008467047F8B50E4601781446054601293E
:1064100001D1687830B12088821C9A422DD8012998
:1064200002D006E00720F8BD69780144891C994232
:1064300023D8181A801E87B2ADF800702188B01CCE
:10644000084469467DDF0028EDD12878022805D16F
:10645000BDF80010B94201D809210AE0082101283D
:1064600005D16878B84202D8ADF8000001E0ADF877
:106470000070BDF80000FE2801D90C20F8BD22886C
:10648000401CB0542088401C80B2208031542088A9
:10649000401C2080BDF80010084420800020F8BD7A
:1064A000C20800F007030120895C9840084070474B
:1064B00028B1A1F11702E12A03D3072070470E206B
:1064C000704701800020704710B560B10161F7216D
:1064D00020F8021B20F8021BFB2100F8021BFFF72B
:1064E00051FD002010BD0E2010BD00002DE9F0432D
:1064F00086888FB00C46002E39D101884E4F00257A
:1065000024295ED006DC102909D011290CD02329BA
:1065100009D172E03A290BD0552904D12AE001466D
:10652000204600F0CDFE7BE0A01DFFF72BFD77E0BD
:106530002246408934F8061F814200D80846608010
:10654000172800D217206080106970B1607960B19F
:10655000D7E90001CDE90001ADF802606088ADF82F
:1065600004001369694610469847657125710FB09C
:10657000BDE8F083C088B14604F10608172800D2B0
:106580001720B8F80010814200D80846A8F8020089
:1065900088F804502846B8F80010ADDF98F80500D8
:1065A00050BB206940B3D7E90201CDE90001ADF845
:1065B0000290B8F80200ADF804002046694622694E
:1065C00019E0011D34226846FCF767FEBDF80000A3
:1065D000BDF8042004EBC0014A73226962B1D7E917
:1065E0000423CDE90D23ADF83600487B8DF8380043
:1065F000226920460DA9904712E00095019530F8D8
:10660000041F04EBC1020179127B8A4200D21146B9
:10661000ADF80010ADF8021000880022694690DF46
:10662000A07A0028A3D0E18830469EDF00289ED1C2
:10663000A5720120E0729AE73C86020000F18040DA
:106640000068002800D00120704708B500F18040A4
:10665000002101600068009008BD4FF47A71484342
:10666000AFF3008000283ED01F49204A096800BFD0
:1066700000BF00BF00BF00BF00BF00BF00BF91420E
:106680002FD000BF00BF00BF00BF00BF00BF00BFD2
:1066900000BF00BF00BF00BF00BF00BF00BF00BF02
:1066A00000BF00BF00BF00BF00BF00BF00BF00BFF2
:1066B00000BF00BF00BF00BF00BF00BF00BF00BFE2
:1066C00000BF00BF00BF00BF00BF00BF00BF00BFD2
:1066D00000BF00BF00BF00BF00BF00BF00BF00BFC2
:1066E00000BF0138C3D17047D82A00200024F4002D
:1066F00000283ED01F49204A096800BF00BF00BFE4
:1067000000BF00BF00BF00BF00BF91422FD000BF3D
:1067100000BF00BF00BF00BF00BF00BF00BF00BF81
:1067200000BF00BF00BF00BF00BF00BF00BF00BF71
:1067300000BF00BF00BF00BF00BF00BF00BF00BF61
:1067400000BF00BF00BF00BF00BF00BF00BF00BF51
:1067500000BF00BF00BF00BF00BF00BF00BF00BF41
:1067600000BF00BF00BF00BF00BF00BF00BF0138B7
:10677000C3D17047D82A00200024F40070B50F4C14
:106780000025207808B1852516E00021A160616010
:106790002161E1604FF0E020D0F80001012610F007
:1067A000010F03D10721002000F022F800F0C0FC07
:1067B00008B9034806602670284670BDE02E002008
:1067C0001805004008B500208DF800006846FDF768
:1067D000E7FA0648C168491EC160C06808B9FFF7FA
:1067E000BDFB9DF80000FDF7FFFA08BDE02E00207C
:1067F0004907090E002806DA00F00F0202F1E02234
:1068000082F8141D03E000F1E02282F8001400F089
:106810001F02012191404009800000F1E020C0F8F2
:106820008012C0F8001170472DE9F04188460546F6
:1068300000F078FD234E002828461AD0FEF748FEC7
:10684000304490F848008009032802D001280ED077
:1068500007E04FF0A040D0F81005E84010F0010F1D
:1068600005D003212846BDE8F04100F036BB0221E7
:10687000F8E700F063FD002822D02846FEF728FE46
:1068800004464FF4807000EB84000F4F81B207EB99
:106890008400D0F8102542F00102C0F81025084607
:1068A00000F052FBB8F1000F0AD02846FEF710FEA8
:1068B00056F82000002803D00120A040C7F80403A8
:1068C000BDE8F081F42E0020006000402DE9FC417D
:1068D000DFF8A480044608EB0400002790F930009C
:1068E0001346C0170E46401C01D0082741E0F2783D
:1068F00019462046FEF7C8FD0546401C38D0B07842
:1069000050B14FF0A04000EB8400D0F8001721F008
:106910000201C0F8001707E00021737820460091BB
:106920000A46019100F09AFAF078C0B11348317824
:1069300000EB8500D0F81025114B1A40C0F8102547
:106940004FF4F8524FF4403302EA042203EA0141C3
:106950000A43D0F810150A43C0F8102509E008EBE7
:106960000500327810F8481F41EA8211017000E0FA
:1069700004273846BDE8FC81F42E0020006000406A
:10698000FFE0FCFF4FF0A041D1F81015C14011F01D
:10699000010000D00120704770B5144D95F85400E7
:1069A00008B1082070BD0020411E2A18401CC0B24A
:1069B00082F830102028F8D300242046FEF756FD38
:1069C000641CE4B20C2CF8D307210620FFF710FF5B
:1069D0004FF4BE7000F0B8FA05494FF00040C1F81E
:1069E0000403012085F85400002070BDF42E00201F
:1069F00000600040034890F85400002800D00120B7
:106A000070470000F42E00200121B1EB507F01D12E
:106A100001207047002070470121B1EB507F01D168
:106A200001207047002070472DE9FC5F80464079C7
:106A30000C4600EBC001454800EB8107387F10B1E0
:106A40000820BDE8FC9FC7E90023207B4FF0A04B46
:106A50004FF00109012805D8227809FA02F0CBF895
:106A60000C0502E0207800F049FA4FF0000ACDF85A
:106A700000A0CDF804A0207853465246012100F032
:106A8000FFF965784FF0FF36FF2D07D009FA05F0C2
:106A9000CBF80C05284600F005FA00E03546A07852
:106AA000FF2809D0002206460123CDF800A0114698
:106AB000CDF804A000F0E4F9E078FF2804D000F05D
:106AC0001DFAE07800F0EEF998F80500E17800EBA7
:106AD000C0021E4800EB82008177D8F800002178C0
:106AE000C0F80815C0F80C55C0F81065A168C0F8CA
:106AF0002415227B617B01B10121012A04D0022AE5
:106B000005D0032A08D105E041F0020104E041F07C
:106B1000040101E041F00601C0F854156179C0F8A4
:106B2000C015396811B14021C0F804130721C0F81D
:106B30000015386820B1217998F90400FFF758FE54
:106B4000504687F81DA087F81C907AE76C2F00202C
:106B50001FB5069C00918DF8042002938DF80C401F
:106B60000022694600F002F804B010BDF0B40D46F2
:106B700013464179144A01EBC10102EB81014A7FBE
:106B800012B1F0BC112070470C6801221CB113F047
:106B9000140F00D14A7795E8D0100C3181E8D0105D
:106BA00011F8154F24F0070401F821498C7FFF2CC0
:106BB00004D04FF0A046A240C6F80C2500682A4633
:106BC000F0BC01F081B900006C2F00202DE9F047E6
:106BD000054600793F4E904606EB40140F46207F55
:106BE00018B10846FFF710FF30B1284600F074F8DE
:106BF00020B11120BDE8F0871020FBE784F8168053
:106C0000A7600027A78228794FF0010806EB4014FF
:106C10003E46207F0028286825D04FF490794946C9
:106C200000F0FAFA4FF4AC7A5146286800F0F4FA12
:106C30002868A17DA268C0F84425C0F848152868D6
:106C4000C0F808806068F0B94946286800F0DFFAAB
:106C500080465146286800F0DAFA58EA0001F3D07D
:106C600058BBA7750FE04FF48E7A514600F0C3FA77
:106C70002868C0F808802146286801F06BFA61682E
:106C80004FF4807089B13046B4E75146286800F06F
:106C9000ADFA10B9A08A4845F7D1A08A484505D079
:106CA0002146286801F056FA00E08146A08AA17DBD
:106CB0008842EAD3A08A484501D10F26D1E7514640
:106CC000286800F093FA0028F9D02868C0F80C80F2
:106CD000C7E700004C2F00200079044901EB401069
:106CE000807D002800D00120704700004C2F00203C
:106CF0002DE9F04128B1016819B14969BDE8F041B9
:106D000008470D4D0D480024461B14270DE000BF19
:106D100004EB840005EB8000016829B149698847CC
:106D200010B10120BDE8F081641CB6FBF7F0A04271
:106D3000EED80020F6E70000000000000000000090
:106D400008B1012808D1054801218170017809B9ED
:106D5000407808B10020704701207047CC2A0020FD
:106D6000012801D0032808D10449002201288A7093
:106D700000D00020C87000F01DBB7047CC2A002056
:106D8000F0B52B4E074687B030780025F0B3294C7C
:106D9000022F206FC0EBC00004EB8001304602D010
:106DA000032F39D117E04560087910B1012833D19C
:106DB0000AE0D1E90502801A4FF48053984200D3CB
:106DC00018461044886102E00869401C08614A695D
:106DD000904206D020E04268521C4260082A1BD92B
:106DE00045601C226846FCF758FA606F401E6067D9
:106DF000206F401C2067042800D125673570022FC2
:106E000005D00D216846FEF760FF05E001E0002196
:106E1000F8E7707800B17570B07820B107B0BDE8C0
:106E2000F04000F08BB907B0BDE8F04000F0C2BA06
:106E3000CC2A0020E830002070B541EA4201DDE9AB
:106E400004564FF0A04441EA830141EA052104EBD6
:106E5000800041EA0641C0F8001770BD70B541EAF4
:106E60004201DDE904564FF0A04441EA830141EAC2
:106E7000052104EB800041EA0641C0F8001770BD0F
:106E800070B541EA4201DDE904564FF0A04441EA01
:106E9000830141EA052104EB800041EA0641C0F884
:106EA000001770BD1CB5002100910B460122019115
:106EB0001146FFF7E5FF1CBD4FF0A04202EB80003A
:106EC000D0F8002722F44032C0F80027D0F800277D
:106ED00042EA0141C0F8001770474FF0A04202EBB0
:106EE0008000D0F8002722F44032C0F80027D0F804
:106EF000002742EA0141C0F8001770474FF0A04256
:106F000001218140C2F80815704701224FF0A043CB
:106F1000824011B1C3F808257047C3F80C257047AB
:106F200018B5084B6C4601441B68009306E000BF8F
:106F300054F82030D3F81035401C08C28142F7D8ED
:106F400018BD000074860200034908B508440021FA
:106F500001600068009008BD006000400249405890
:106F6000012800D0002070470060004020B1034994
:106F700009680160002070470E207047F08602000B
:106F8000FEB506460D460846FFF7F0FF002844D13F
:106F9000002400940194012703208DF80060ADF8CF
:106FA000040002948DF80270694620202A6869DF87
:106FB00000948DF800708DF80140019402948DF8D2
:106FC0000240694640202A6869DF00948DF800601D
:106FD000F720ADF8020001940294694623202A6844
:106FE00069DF0094019402948DF8007069460120D5
:106FF0002A6869DF09480194029440680090694654
:10700000A1202A6869DF0094019402948DF8004061
:107010006946A0202A6869DF0020FEBDF0860200D4
:1070200060DF704730B5EBB04FF4CE75ADF8A851C6
:107030006AA9684661DF30B1052816D06BB0BDE89B
:107040003040FCF7DBBD6C46094967A800F0A2F8A8
:1070500007E000BFD0E900212046904767A800F074
:10706000B0F869980028E1D0F4E76BB030BD0000BB
:10707000F886020010B50E4C2078B8B10120A0703F
:1070800000F0F2FA11280FD0022000F005FB11DF0A
:1070900000280AD12070A070162000F063FA0028A2
:1070A00003D1032000F0F8FA002010BD082010BD25
:1070B000D42A002038B5124C207808B1082038BDF9
:1070C0000125A570002000F0CFFA112815D000206E
:1070D00000F0E2FA0B480C4900680090684610DFA7
:1070E0000028ECD12570A0706070162000F05AFACC
:1070F0000028E4D1012000F0CFFA002038BD0000C4
:10710000D42A002090860200CD3B02000EB507492C
:10711000684600F03FF805E0D0E90010884768466F
:1071200000F04FF802980028F6D10EBDAC860200A0
:107130000148007870470000D42A00200548817873
:1071400019B1007818B1FFF795BF08207047FFF715
:10715000B1BF0000D42A00201FB5684648DF30B117
:10716000052814D004B0BDE81040FCF747BD08491D
:1071700001A800F00FF806E0D0E900210098904740
:1071800001A800F01EF803980028E6D0F4E71FBD20
:1071900014870200016009684160AFF3008010B5F8
:1071A000D0E900215368994201D1002104E0D1E9DE
:1071B0000034A34202D01946816010BD08314160FD
:1071C000F0E7816800290BD0026892680A44826067
:1071D00041684B689A4203D108314160FFF7DFBF35
:1071E00070474058002800D00120704740580028C0
:1071F00000D00120704708B500224250405800904E
:1072000008BDD0F80403084000D001207047405862
:10721000002800D00120704708B500224250405895
:10722000009008BD38B1C16929B1016A19B1406A3D
:1072300008B1002070474FF0FF30704770B504462A
:10724000007800281AD1002509E0A068405DFCF70D
:1072500089FD18B11128F8D0FCF7D0FC6D1CA0896D
:10726000A842F2D8A189A068084410F8010C0D28A2
:1072700004D10A20FCF776FD1128FAD070BD10B5B4
:1072800050B103280CD10220FDF7B2FF002807D02F
:10729000BDE81040FCF7B2BCBDE8104000F0D6BD20
:1072A00010BD00000078002807D104483B218088E9
:1072B00076DF002801D0FCF7A1BC7047682A0020C7
:1072C0007CB58E88027900EBC605AC1D2A73C97B9C
:1072D000012902D0022904D101E0008800E04088A1
:1072E000208021886088814209D930469EDF0121B3
:1072F00010B1112802D002E0617100E02171A07983
:10730000E17988420CD9002100910191297BADF8E7
:107310000010297BADF8021030460022694690DF4C
:107320007CBD00000449084490F93000082801DBC6
:107330000120704700207047F42E002004490844C3
:1073400090F93000082801D20120704700207047D2
:10735000F42E002038B5044600200D468DF80000BC
:107360000B46012221464020FDF7FEFA00280FD1EE
:10737000297912290DD021780A0609D521F080003B
:1073800020702B46012221465FF04000FDF77BFC78
:1073900038BD20782B4640F0800020700122214625
:1073A0004020FDF770FC0028F2D102222B466946EE
:1073B0005820EBE7F0B41F48416F00292FD0016F30
:1073C0001D4DC1EBC10100EB810401262E70207917
:1073D00010B101281BD113E0D4E90501401A4FF484
:1073E0008052904200D31046B6EB900F01D2820833
:1073F00000E001222069E3680844194429DF03E022
:10740000D4E90301084428DF58B1112804D02046EC
:10741000F0BC0321FEF759BC002028706E70F0BC50
:107420007047E8780028FAD1F0BC00210220FFF76D
:10743000A7BC0000E8300020CC2A002070B501264F
:1074400070044FF0E0210025C1F88001084C401085
:10745000C4F84803C4F8080366602F20FFF748F912
:10746000A660044C2F20A560FFF742F9A57070BDFF
:1074700000100140A82A002070B50546C87D0C46C2
:1074800000284FF4847128460AD0FFF7B4FED5F8DF
:107490001805627EE1688854607E401C607670BD8D
:1074A000FFF7A9FED5F8180570BD30B58FB00546B9
:1074B0001C216846FBF70AFF00249DF80000019498
:1074C00040F00C008DF80000039404940594069499
:1074D00028788DF836000220ADF834000C949DF821
:1074E0003000142120F00F00401C20F0F00010307C
:1074F0008DF830009DF8310020F00F00401C20F086
:10750000F00010308DF831009DF8320020F00600B8
:10751000801C20F0180040F001008DF8320007A810
:10752000FBF7D4FE0DA807900CA808900120ADF839
:107530002400F420ADF82640ADF82800688805F155
:107540000C0307AA6946A2DF0FB030BD1FB50123A7
:107550008DF800308DF808100192D0E900126846CD
:1075600090471FBD10B50446FCF706FA68B10C4AF7
:10757000936804F01F0001218140600943B152F873
:1075800020308B4342F8203007E042F2010010BD6A
:10759000800000F1E020C0F88011002010BD000044
:1075A000DC30002010B50446FCF7E6F940B1002CB1
:1075B00009DA04F00F0000F1E02090F8140D06E065
:1075C00042F2010010BD04F1E02090F800044109EE
:1075D000082912D289B101290FD004290DD00C4AF3
:1075E000936804F01F0101208840610943B152F8FB
:1075F0002130034342F8213007E042F2020010BD7F
:10760000890001F1E021C1F80001002010BD000057
:10761000DC30002038B50021012558B101280ED0FA
:1076200003280BD107210020FFF7E2F8BDE838401E
:10763000FFF7C8B84FF0E020C0F8805138BD8DF892
:1076400000106846FCF7ACFB064C207808B9FFF741
:1076500095F8E068401CE060A5709DF80000FCF71C
:10766000C3FB38BDE02E00203EB5044609496846FC
:10767000FFF790FD08E000BFD0E9002120469047C9
:1076800030B16846FFF79DFD02980028F4D13EBD59
:1076900011203EBD948602003EB504460849684666
:1076A000FFF778FD07E000BFD0E9002120469047B2
:1076B0006846FFF786FD02980028F5D13EBD000020
:1076C000A086020070B50028049D18D0002916D0AD
:1076D000002A14D05FF0000430F814609E420FD1ED
:1076E00000200123A34008E001EB800426680DB1CF
:1076F0001E4300E09E43401C26609042F4D370BDC0
:10770000641C202CE8D370BD70B5054600242146CA
:10771000284600F00AF808B1204670BD641CA4B2E7
:10772000202CF4D34FF6FF7070BD01228A40024234
:1077300001D001207047002070472DE9F04192B040
:1077400080464FF0000017460D00009012D0002434
:107750006E46A1B23846FFF7E8FF40B1009935F810
:10776000140006EB410188800098401C0090641CC6
:10777000202CEED3442269464046FBF78EFD12B022
:10778000BDE8F08108B5009313460122FFF79AFF88
:1077900008BD000002498969002900D008477047E8
:1077A0000C2E00202DE9F0410746806A14468846D9
:1077B000C8B3002531E000BFB96A05EB450001EB15
:1077C0008006B088801CFE2802D90C20BDE8F0811C
:1077D0002288401C08F8020020881622401C80B233
:1077E000208008F800202088401C80B2208000EB18
:1077F0000801308800F040FE2188084480B22080D3
:10780000B28842B1B16871B14044FBF746FD2088AF
:10781000B188084420806D1CEDB297F82C00A84276
:10782000CAD80020D2E7FFE70720CFE7F8B5064621
:107830000C460846FFF7F6FC60B95EB10027351D1F
:107840008DF800702346012269465020FDF78CF820
:1078500018B112E04FF0FF30F8BD9DF80000298804
:1078600020F08000C90A40EAC1108DF800002346CC
:10787000012269465020FDF706FA0028ECD1214686
:10788000304600F0D5FA0028E6D121463046FEF712
:1078900033FD0028E0D12346022269466720009785
:1078A000FDF762F80028D7D19DF80000234620F0AC
:1078B0003F02288800F03F0111438DF800109DF829
:1078C0000110C0F3412221F0300141EA021121F000
:1078D0000701C0F3821008438DF8010002226946B7
:1078E0006720FDF7D0F9F8BDF8B506460C46084606
:1078F000FFF798FC60B95EB10027351D8DF8007068
:107900002346012269465120FDF72EF818B11EE0EA
:107910004FF0FF30F8BD9DF80000234620F0010134
:10792000287800F001020A4322F00201C0F340026D
:1079300041EA420121F00401C0F3800041EA8000E5
:107940008DF80000012269465120FDF79CF90028BE
:10795000E0D12146304600F06BFA0028DAD121460A
:107960003046FEF7C9FC0028D4D18DF800702346BC
:10797000012269465820FCF7F7FF78B99DF800000E
:10798000297820F08000490940EAC1108DF80000F4
:107990002346012269465820FDF775F90028B9D120
:1079A0002346012269465C200097FCF7DDFF002892
:1079B000B0D19DF80000297820F0C000C90840EA45
:1079C00081108DF80000A8788DF8010068788DF896
:1079D00002002346032269465C20FDF754F9F8BDF6
:1079E000F8B506460D460846FFF71CFC60B95EB1C7
:1079F0000027341D8DF800702B4601226946512066
:107A0000FCF7B2FF18B113E04FF0FF30F8BD9DF85E
:107A10000000A17820F00800C1F3001140EAC10085
:107A20008DF800002B46012269465120FDF72BF905
:107A30000028EBD12946304600F0FAF90028E5D1BC
:107A400029463046FEF758FC0028DFD18DF800703B
:107A50002B46012269465820FCF786FF78B99DF82D
:107A60000000A17820F08000C90840EAC1108DF81C
:107A700000002B46012269465820FDF704F9002832
:107A8000C4D12B4601225C200DF102010097FCF7C6
:107A90006BFF0028BAD19DF80200A17820F0030006
:107AA00001F0030101438DF8021021F00400A178D8
:107AB0002B46C1F3800140EA81008DF80200607816
:107AC0008DF8010020788DF80000032269465A20C5
:107AD000FDF7D9F8F8BDF8B506460C460846FFF79D
:107AE000A1FB60B95EB10027351D8DF800702346FB
:107AF000012269465220FCF737FF18B121E04FF010
:107B0000FF30F8BD2888C10705D09DF8001041F06E
:107B100001018DF80010810705D59DF8001041F096
:107B200002018DF80010400705D59DF8000040F0D7
:107B300004008DF800002346012269465220FDF71B
:107B4000A2F80028DDD12146304600F071F9002866
:107B5000D7D121463046FEF7CFFB0028D1D18DF892
:107B600000702346012269465920FCF7FDFE78B9D2
:107B70009DF80000298820F08000890A40EAC110A1
:107B80008DF800002346012269465920FDF77BF855
:107B90000028B6D121462846BDE8F840FDF760BE72
:107BA000F8B505460E460846FFF73CFB60B95DB1E7
:107BB00000208DF800002C1D33460122694650201C
:107BC000FCF7D2FE18B113E04FF0FF30F8BD9DF87E
:107BD0000000A17820F0400001F0010140EA81108E
:107BE0008DF800003346012269465020FDF74BF81E
:107BF0000028EBD13146284600F01AF90028E5D1DB
:107C000031462846FEF778FB0028DFD13146204672
:107C1000BDE8F840FDF764BE2DE9F84306460D4681
:107C20000846FFF7FFFA4FF0FF3768B966B14FF02B
:107C30000008341D8DF800802B4601226946502033
:107C4000FCF792FE18B11BE03846BDE8F8832078B7
:107C500080069DF8000020F0070007D540F00700DF
:107C60008DF8000001212846E97003E08DF800003E
:107C70002846EF700346012269465020FDF703F8BD
:107C80000028E2D12946304600F0D2F80028DCD1A5
:107C900029463046FEF730FB0028D6D18DF800800B
:107CA0002B46012269465920FCF75EFE78B99DF803
:107CB0000000217820F08000090940EAC1108DF809
:107CC00000002B46012269465920FCF7DCFF002802
:107CD000BBD129462046BDE8F843FDF73FBEF8B5C5
:107CE00005460E460846FFF79DFA60B95DB10020D3
:107CF0008DF800002C1D3346012269465220FCF706
:107D000033FE18B113E04FF0FF30F8BD9DF80000CE
:107D1000217820F0080001F0010140EAC1008DF84F
:107D200000003346012269465220FCF7ACFF0028D0
:107D3000EBD13146284600F07BF80028E5D13146EA
:107D40002846FEF7D9FA0028DFD131462046BDE8A3
:107D5000F840FDF73DBE0000F8B506460C46084663
:107D6000FFF760FA60B95EB10027351D8DF800702D
:107D70002346012269465020FCF7F6FD18B117E0B2
:107D80004FF0FF30F8BD707804289DF800002DD02A
:107D9000298820F01000C1F3C02140EA011000BF83
:107DA0008DF800002346012269465020FCF76BFF46
:107DB0000028E7D12146304600F03AF80028E1D10A
:107DC0002146304600F034F80028DBD12146304609
:107DD000FEF792FA0028D5D18DF8007023460122D3
:107DE00069465820FCF7C0FD40B118E0298820F012
:107DF0002000C1F3C02140EA4110D1E79DF8000006
:107E0000298820F00800C1F3802140EAC1008DF8E4
:107E100000002346012269465820FCF734FF002861
:107E2000B0D1224629463046BDE8F840FDF71DBED8
:107E300070B50C460546FDF7C5FC002805D1214666
:107E40002846BDE87040FDF787BC70BD10B5002026
:107E5000FDF7CEF908B1FBF7D1FEFDF723F908B124
:107E6000FBF7CCFE32DF002803D0BDE81040FBF763
:107E7000C5BE10BD002801D1FDF7A0BB70470000B2
:107E80001FB50C4B0FCB8DE80F0016208DF80300AB
:107E900018208DF8020017208DF8010019208DF8A8
:107EA000000004480023044A69460838FEF7BCFD78
:107EB00004B010BDF8850200BD7E0200014901201A
:107EC00048707047682A00202DE9F843044610687E
:107ED0001E4615460F464FF0000810B1FEF79CFDF8
:107EE000F8B1A86810B1FEF797FDD0B128792968DC
:107EF000C4F84415C4F84805287BA968C4F83415AB
:107F0000C4F838054FF48C754046C4F81881D4F88D
:107F100018110091F2074FF0010107D0C4F8501575
:107F200006E087F81D801020BDE8F883C4F85005EE
:107F3000B20702D5C4F8401501E0C4F84005300787
:107F400000D42161386848B146F38000401C4FF0EE
:107F500040000FD0C4F804030020E5E7294620467E
:107F6000FFF73FF90028F9D0B87FFF28F4D0FEF7DB
:107F7000C5FFF1E7C4F80803EEE700002DE9F84F6C
:107F80001D4C00256846D4E901A6FDF743FE0027F5
:107F900038B30023009A61681CE0D1F800C008469D
:107FA000944503D9ACEB02020A6015E0A2EB0C0287
:107FB00063440760D0F80CC0C1698146BCF1000F72
:107FC00008D006EB030828F07F48C0E9018CC9F807
:107FD0001C5005460029E0D128466160FDF7DEFF10
:107FE00003E02846FDF7DAFF10B15046FDF7FAFA34
:107FF000E770BDE8F88F0000A82A00200D4B10B5EF
:10800000596831B102680C68A24204D8A21A0A6009
:10801000C161586010BD0B4603E00B46C969121BD5
:1080200021B10C689442F8D3A41A0C600260C161BB
:10803000D86110BDA82A00202DE9F041144E7768C0
:108040003D462C4603E0844204D02546E469002CDA
:10805000F9D11BE0D4B1A5420BD1F869706040B9E9
:108060000C49012088600021B160F0702F20FEF7DC
:108070003FFB2168E069E86110B1026811440160CA
:108080007068874202D00120BDE8F0810020FBE744
:10809000A82A0020001001407CB5064600240D46A9
:1080A0008DF800406846FBF77BFE01A800F01EFA41
:1080B00070B10570094946609DF8040048709DF84C
:1080C0000000FBF791FE1420FBF722FA20467CBD4E
:1080D00004249DF80000FBF787FEF7E7B02F00208F
:1080E0002DE9F041194D6C68002C2CD01848002760
:1080F0000068A968B846401A20F07F462068B04260
:108100000CD82146361A0744E469087C20B181F86E
:108110001080886949698847002CEFD129786878F0
:10812000814206D1401CC0B26870022801D185F896
:108130000180064869780C3040F82170BDE8F041B4
:108140001420FBF7E5B9BDE8F0810000A82A002063
:108150000415014070B50C4605464FF48E71FFF7CB
:108160004AF8A18AA068415CA08A401CA082C5F898
:108170001C1570BD30B58FB00024054607949DF8DE
:108180001C001C2120F00F00401C20F0F0001030DB
:108190008DF81C009DF81D0020F00F00401C20F001
:1081A000F00010308DF81D009DF81E0020F0060034
:1081B000801C8DF81E006846FBF788F89DF80000CB
:1081C000019440F010008DF8000007A8CDE90440AC
:1081D0000394069428788DF83A000320ADF838000F
:1081E0000D949DF83400142120F00F00401C20F065
:1081F000F00010308DF834009DF8350020F00F00AD
:10820000401C20F0F00010308DF835009DF836004D
:1082100020F00600801C20F0180040F001008DF8CE
:10822000360008A8FBF752F80EA808900DA8099090
:108230000120ADF82800F420ADF82A40ADF82C005C
:1082400068882B1D08AA6946A2DF0FB030BD1FB594
:1082500000228DF800208DF8081081680191827548
:10826000D0E90012684690471FBD2DE9FF470C4634
:1082700005464FF40071FEF7C4FF01274FF4017863
:10828000002618B34FF4927949462846FEF7AEFF10
:10829000E0B149462846FEF7AEFFC5F80883A07E48
:1082A00000B96F6002208DF80000D5F88004C5F891
:1082B00080040390E07D8DF80800E0680190E67589
:1082C0002676D4E900126846904727E00421284624
:1082D000FEF797FF10B34FF484712846FEF786FF30
:1082E000E0B121462846FFF7C7F8E07D617E88426D
:1082F00014D1207E38B1617EE268E0752069E060CB
:108300002676667607E0A07E00B96F60C5F8088320
:10831000E675617EE2682046FFF718F94FF48E7823
:1083200041462846FEF762FF88B1A08AA17D8842B7
:1083300004D221462846FFF70DFF08E041462846B3
:10834000FEF759FFA17D11B12046FFF780FF4FF4E2
:10835000A27841462846FEF749FF002812D0414640
:108360002846FEF748FFA07E00B12F60E07D002880
:1083700008D0E675617EE26804B02046BDE8F047AB
:10838000FFF7E4B8BDE8FF872DE9FF410C464FF445
:10839000927705463946FEF73AFF0026C0B13946C6
:1083A0002846FEF739FF02208DF80000D5F880043A
:1083B000C5F880040390D5F83C058DF80800E06806
:1083C0000190E6752676D4E900126846904724E0CD
:1083D0004FF4887739462846FEF719FFE8B1394649
:1083E0002846FEF719FFD5F83C05C1B2E07D88426A
:1083F00013D1207E60B1E268D5F8000220F02000A1
:10840000C5F80002207EE0752069E060267601E074
:10841000E675E2682046FFF799F84FF4A2773946EF
:108420002846FEF7F4FE68B139462846FEF7F4FE0A
:10843000E07D38B1E675D5F83C05E268C1B220466A
:10844000FFF784F84FF4907631462846FEF7DFFEBA
:1084500000280FD031462846FEF7DEFEA07D00281A
:1084600008D0D5F84C0504B0C1B22046BDE8F041B3
:10847000FFF7EDBEBDE8FF810870000A48700220DA
:1084800070470000F8B5054680B2FDF7F5FC040022
:1084900013D0154E207A0027317B88420ED2A8B225
:1084A00004F10A0175DF28B1112806D0BDE8F840B3
:1084B000FFF770B9207A401C2072F8BD2772307C1B
:1084C00038B1A8B23B2176DF18B1082801D0FFF7F8
:1084D00061F971690029F0D08DF80070ADF8025093
:1084E00068468847F8BD00000C2E00200A494A78EB
:1084F0008B78521CD2B2934200D100220B78934267
:1085000001D1002070470270487800EB400001EB79
:10851000C000001D70470000B02F00202DE9FC4175
:108520001646DDE90854CDE900541F468046022274
:1085300000F00CF8002807D1CDE900543B4610228A
:108540003146404600F002F8BDE8FC812DE9FC5FB1
:108550000026DDE90C4B994692468E4680462788D8
:10856000354630E0D8F80400002200EB850069466B
:108570000068019001A864DF002830D19DF8000058
:1085800050451FD10EB1002100E00221228808448D
:108590001118594522D846B9521C90B2208009F8CA
:1085A00000E02088401C20800126218801A801EBE2
:1085B0000902694664DF002811D120889DF8001067
:1085C000084420806D1CB8F80000A842CADC56B1EF
:1085D0002088C01B401E80B2FF2802D90C20BDE8B5
:1085E000FC9F09F807000020F9E7000001000001E6
:1085F0000030004003000100FFFFFFFF03FF000009
:108600000000004000000000111213140D0E0F10A6
:108610006C2D00208C2D0020B82D00200D000300B3
:10862000C55002000E000300C55002000F000300F9
:10863000C550020010000300C5500200770A000078
:1086400000000000770A0000000000007ADA000055
:108650000000000001000000000000000000000019
:10866000000000009ECADC240EE5A9E093F3A3B548
:108670000000406E00000050902F0020030000001A
:1086800088870200908702000000000000000000C0
:1086900001000007808602009086020008000000AA
:1086A000B8860200C886020008000000C8860200E2
:1086B000D886020008000000B8870200C8870200C0
:1086C0000000000000000000A8870200B887020038
:1086D00000000000000000005087020058870200E0
:1086E00058870200688702006887020088870200B6
:1086F000682A002080050000D8860200F08602006B
:108700000800000090870200A0870200A0870200F6
:10871000A8870200048702001487020008000000F6
:108720000404011020408002010808020400000037
:10873000C8870200682A00207C0000005839020027
:1087400044880200E42A00207C46000068390200C8
:108750001D47020000000000AD44020000000000C0
:10876000B1450200000000008D480200D82B002017
:10877000ED640200F42B002043410200082C00208D
:108780002146020000000000416D020000000000D0
:10879000757E020000000000816D020000000000F4
:1087A000AB410200082C00202570020000000000F0
:1087B0005971020000000000157602000000000060
:1087C000616D02000000000000000000FFFF1400C7
:1087D0000100020000000000000000000000000096
:1087E0000000000000000000000000000000000089
:1087F0000000000000000000000000000000000079
:108800000000000000000000000000000000000068
:108810000000000000000000000000000000000058
:1088200000000000002000400000000000000000E8
:1088300000000000000000000090D00300000000D5
:048840000000000034
:0400000500023201C2
:00000001FF
